:020000040800F2
:10000000481F0020E9020008DF1C0008091B000847
:10001000DD1C0008DF040008A12200080000000029
:10002000000000000000000000000000290200089D
:10003000690500080000000085020008E11C0008B6
:100040000303000803030008030300080303000878
:100050000303000803030008030300080303000868
:100060000303000803030008030300080303000858
:100070000303000803030008030300080303000848
:100080000303000803030008030300080303000838
:100090000303000803030008030300080303000828
:1000A0000303000803030008030300080303000818
:1000B000A11D000803030008030300080303000850
:1000C00003030008030300080303000803030008F8
:1000D0000303000895220008030300080303000837
:1000E00003030008030300080303000803030008D8
:1000F00003030008030300080303000803030008C8
:1001000003030008030300080303000803030008B7
:1001100003030008030300080303000803030008A7
:100120000303000803030008E104000803030008B8
:100130000303000803030008030300080303000887
:100140000303000803030008030300080303000877
:100150000303000803030008030300080303000867
:100160000303000803030008030300080303000857
:100170000303000803030008030300080000000055
:10018000030300080303000800F002F800F03CF845
:100190000AA090E8000C82448344AAF10107DA45E2
:1001A00001D100F031F8AFF2090EBAE80F0013F0F8
:1001B000010F18BFFB1A43F0010318470425000084
:1001C00024250000103A24BF78C878C1FAD8520715
:1001D00024BF30C830C144BF04680C6070470000C1
:1001E0000023002400250026103A28BF78C1FBD840
:1001F000520728BF30C148BF0B6070471FB502F0DF
:1002000049FA1FBD10B510BD00F02FF91146FFF7D8
:10021000F5FF02F0C9F800F04DF903B4FFF7F2FF63
:1002200003BC00F055F900002C4B19680868B0E8D1
:10023000F04F80F30988BFF36F8F4FF0000080F319
:10024000118870470000000008480068006880F3CB
:1002500008884FF0000080F3148862B661B6BFF3DF
:100260004F8FBFF36F8F00DF00BF00BF08ED00E0CE
:10027000DFF80C00016841F470010160704700BFB5
:1002800088ED00E0EFF30980BFF36F8F134B1A681E
:100290001EF0100F08BF20ED108A20E9F04F10600B
:1002A00009B44FF0500080F31188BFF34F8FBFF3B4
:1002B0006F8F02F035F94FF0000080F3118809BC10
:1002C00019680868B0E8F04F1EF0100F08BFB0ECD6
:1002D000108A80F30988BFF36F8F704714000020E5
:1002E000EFF3058070470000094880470948004740
:1002F000FEE7FEE7FEE7FEE7FEE7FEE7FEE7FEE7D6
:10030000FEE7FEE704480549054A064B7047000032
:10031000911D00088901000848070020481F00209F
:10032000481700204817002053EA020C00F06980AB
:100330002DE9F04B4FF00006002B1FBFB3FA83F5F9
:1003400003FA05F424FA05F65E4012BF1643B2FA2A
:1003500082F502FA05F4C5F120051EBF22FA05FC5C
:1003600044EA0C04203556EA044C4FEA144418BF02
:10037000641C4FF000084FF00009904271EB030C31
:1003800039D3002919BFB1FA81F701FA07F6B0FA9B
:1003900080F700FA07F6C7F120071EBF20FA07FC16
:1003A00046EA0C062037B6FBF4FCA7EB0507103F26
:1003B00007F01F0BCBF120060CFA0BFB2CFA06F60C
:1003C00044BFB3460026202FA4BF5E464FF0000B6B
:1003D0005BEA060C08BF4FF0010B19EB0B09ABFBF6
:1003E000027C48EB0608C01B06FB02CC0BFB03CCCF
:1003F00071EB0C01C1E70B46024641464846BDE899
:10040000F08B13B54FF000004FF00001AFF3008008
:10041000BDE81C4070474FF0000200B513469446FB
:100420009646203922BFA0E80C50A0E80C50B1F14C
:100430002001BFF4F7AF090728BFA0E80C5048BF60
:100440000CC05DF804EB890028BF40F8042B08BFFE
:10045000704748BF20F8022B11F0804F18BF00F8FA
:10046000012B7047704770477047754600F02CF8B5
:10047000AE4605006946534620F00700854618B091
:1004800020B5FFF73FFFBDE820404FF000064FF0DA
:1004900000074FF000084FF0000B21F00701AC46B9
:1004A000ACE8C009ACE8C009ACE8C009ACE8C009D8
:1004B0008D46704710B50446AFF300802046BDE876
:1004C0001040FFF7AABE000000487047E406002075
:1004D00001491820ABBEFEE7260002007047FEE788
:1004E000014800F09FB8000078010020016818233F
:1004F000CAB2103AB2FBF3F2054B6FF30901032ABB
:100500009B5CC36500D9091D8165084670470000E2
:100510009E26000810B5014600208B698A6A4FF0BC
:10052000C07453B1B3F5005F15D072B1012A0CD07D
:10053000022A0AD0032A09D104E01AB1012A06D0FE
:10054000022A03D1C96AC90100D5012010BDC96AB8
:10055000A142FAD010BD002AF7D0012AF2D0022A17
:10056000F3D0032AF3D010BD704772B6FEE72DE931
:10057000F0410446876D00F09FFA064694F8350076
:100580000025022806D08020606584F834500120C0
:10059000BDE8F0812068016821F016010160206843
:1005A000416921F080014161206C08B9A06C20B143
:1005B0002068016821F0080101602068016821F0CD
:1005C000010101600CE000F077FA801B052807D9D3
:1005D00020206065032084F8350084F83450D7E784
:1005E00020680068C007EED194F85C103F20884076
:1005F000B860012084F8350084F834500020C7E743
:1006000090F83510022903D0802141650120704700
:10061000052180F835100068016821F001010160B2
:10062000002070472DE9F84304464FF00009CDF84B
:10063000009063484FF41651A56D0068B0FBF1F7C8
:100640002E6894F85C10082000FA01F131420FD0B6
:1006500021680A6852070BD50A6822F004020A6072
:1006600094F85C108840A860606D40F001006065FF
:1006700094F85C104FF0010808FA01F0304208D0FD
:1006800021684969090604D5A860606D40F0020040
:10069000606594F85C1004208840304208D02168DE
:1006A0000968890704D5A860606D40F004006065A2
:1006B00094F85C1010208840304218D021680968F6
:1006C000090714D5A86020680168490304D50068AB
:1006D000000308D5A16C07E00168C90503D40168CF
:1006E00021F008010160216C09B12046884794F887
:1006F0005C1020208840304231D021680968C9064A
:100700002DD5A86094F8350005282068016806D02A
:10071000490347D5006800031DD4616C1CE021F03B
:10072000160101602068416921F080014161206C5F
:1007300008B9A06C20B12068016821F008010160AF
:1007400094F85C103F208840A86084F8358084F8D5
:100750003490216D1FE0E16B09B120468847606D40
:1007600000282BD0606DC00714D0052084F8350018
:100770002068016821F0010101600098401C009090
:10078000B84203D820680068C007F6D184F83580E5
:1007900084F83490E16C002910D001B02046BDE807
:1007A000F04308470168C905D5D4016821F010015C
:1007B000016084F8358084F83490CCE7BDE8F88394
:1007C000100000202DE9F041044600F075F90646BE
:1007D0005CB1022084F83500002584F8345020688C
:1007E000016821F0010101600DE00120BDE8F08108
:1007F00000F062F9801B052805D9202060650320E0
:1008000084F83500F2E720680068C007F0D122685C
:10081000116820480140D4E901031843D4E90336A4
:100820003343184363691843A3691843E3691843C2
:10083000236A18430843616A042903D1D4E90B13DE
:1008400019430843106020684069666A20F0070178
:1008500030460E43012704280CD1A06A0643E06A03
:1008600040B12046FFF756FE20B14020606584F875
:100870003570BAE7206846612046FFF737FE94F8E6
:100880005C203F2191408160656584F835700020CF
:10089000ACE700003F8010F070B5044600F00CF9A2
:1008A0000546601C02D004480078044400F004F9B6
:1008B000401BA042FAD370BD040000202DE9F84F80
:1008C000DFF8BCA10022012503264FF00F090AF131
:1008D000040BAAF1040E00BF0B6805FA02F42340D2
:1008E000A34270D10F7907F00307012F01D0022F27
:1008F00016D187684FEA420806FA08FC27EA0C0777
:10090000D1F80CC00CFA08FC4CEA070CC0F808C07F
:100910004768A7430C79C4F3001494403C434460F7
:100920000C79E443A4070AD0C4684FEA420C06FAE3
:100930000CF7BC438F6807FA0CF72743C7600C79A4
:1009400004F00304022C12D1D40800EB840CDCF870
:1009500020405707FF0E09FA07F824EA0804D1F8E7
:10096000108008FA07F848EA0408CCF820800468E8
:100970004FEA420C06FA0CF7BC430F7907F0030765
:1009800007FA0CF7274307604C6814F4403F70D017
:100990003C4C276847F480472760246822F003070F
:1009A00004F480440094384C07EB040CDCF808484D
:1009B00097074FEA177809FA08F7BC43334FB84254
:1009C00002D1002724E054E0314FB84201D1012781
:1009D0001EE0304FB84201D1022719E02E4FB84235
:1009E00001D1032714E02D4FB84201D104270FE0B5
:1009F0002B4FB84201D105270AE02A4FB84201D156
:100A0000062705E0284FB84201D1072700E0082754
:100A100007FA08F72743CCF80878DAF80040574679
:100A2000D1F804C09C435FEACC2C00D51C433C6049
:100A3000DBF800405F46D1F804C09C435FEA8C2C91
:100A400000D51C433C60DEF800407746D1F804C076
:100A50009C435FEA8C3C00D51C433C60084F083F38
:100A60003C68D1F804C09C435FEACC3C00D51C43F1
:100A70003C60521C102AFFF42FAFBDE8F88F000035
:100A8000083C014044380240003001400000024070
:100A90000004024000080240000C02400010024026
:100AA0000014024000180240001C02400AB181619B
:100AB00070470904FBE700000148806870470000A8
:100AC0000400002002488168027811448160704768
:100AD000040000200B4810B5016841F4007101606A
:100AE000016841F480610160016841F48071016036
:100AF000032000F09FF80F2000F006F800F050F8F7
:100B0000002010BD003C024030B50546204887B0AB
:100B10000024016841F001010160006806A900F0AD
:100B20000100009001A800F031F90498B0B100F084
:100B30004DF9400017494FF08042B0FBF1F11648E3
:100B4000491E026040F2E732C0E90324C0E9011403
:100B5000846100F0B7FB040003D015E000F036F923
:100B6000E8E70D4800F0F0FB04000DD11C2000F078
:100B700033F8102D07D2002229461C2000F03AF845
:100B80000648056000E0012407B0204630BD0000A3
:100B90004038024040420F00D801002008000020E9
:100BA0000C4882B0016841F480410160006800F4A3
:100BB000804000900748001F016841F080510160AB
:100BC0000068002200F0805000900F21901E02B0BB
:100BD00000F010B844380240002809DB00F01F0282
:100BE000012191404009800000F1E020C0F800118F
:100BF00070470000F0B40E4B1B680C46C3F3022391
:100C0000C3F10705042D00D90425191D072901D2B8
:100C1000002300E0DB1E012606FA05F1491E2140F3
:100C200099409E40761E16403143F0BC01F039BB1E
:100C30000CED00E0064900F0070208684FF6FF03DC
:100C4000184040EA0220034A104308607047000041
:100C50000CED00E00000FA052DE9F0470E46050016
:100C600065D0DFF81481D8F80000F7B200F0070073
:100C7000B04207D288F80070D8F8000000F00700F2
:100C8000B04254D128683D4C810712D5400703D5A6
:100C9000206840F4E05020602878000703D52068E1
:100CA00040F4604020602068A96820F0F00008430C
:100CB00020602878C0072DD030496868083901289D
:100CC00012D0022813D0032811D0096889070029FF
:100CD0002DDA216821F0030101432160FFF7ECFECA
:100CE000814641F2883A0EE009688903EFE7096816
:100CF0008901ECE7FFF7E0FEA0EB0901514502D9BD
:100D00000320BDE8F0872068696800F00C00B0EBB4
:100D1000810FEFD1D8F80010404601F00701B14231
:100D200007D90770006800F00700B04201D0012029
:100D3000E7E72878400705D52068E96820F4E05007
:100D4000084320602878000706D52068296920F428
:100D5000604040EAC100206000F058F82168084A6D
:100D6000C1F30311515CC840064908600648006899
:100D7000FFF7CAFE0020C4E7003C024008380240EA
:100D8000A626000810000020080000200F220260A4
:100D90000C4A136803F003034360136803F0F00385
:100DA0008360136803F4E053C36012684FF4E053A8
:100DB00003EAD20202610448006800F007000860FC
:100DC0007047000008380240003C024004480549D2
:100DD00000680968044AC1F38221515CC840704729
:100DE0001000002008380240B626000804480549D3
:100DF00000680968044AC1F34231515CC840704739
:100E00001000002008380240B6260008154810B52A
:100E1000006810F00C02144813D01449042A0FD0B3
:100E2000082A0ED10F4C241F2268236802F03F02CB
:100E30005B0207D52068C0F38810A0FB010106E023
:100E4000084610BD2168C1F38811A1FB00010023F1
:100E5000FFF76AFA2168C1F30141491C4900B0FB60
:100E6000F1F010BD083802400024F40040787D0104
:100E70002DE9F84F04006ED02078DFF84C93C007BE
:100E8000A9F104054AD009F104000168C1F3810108
:100E9000012908D00068C0F3810002280AD1D9F8DE
:100EA0000000400206D52868800337D56068002816
:100EB000E1D033E06068B0F5803F10D0B0F5A02FEE
:100EC000286810D020F480302860286820F4802022
:100ED00028606068A8B1FFF7EFFD06460DE02868BE
:100EE00040F48030F4E740F480202860F7E700BF4A
:100EF000FFF7E2FD801B642873D828688003F7D5CC
:100F00000CE0FFF7D9FD064605E000BFFFF7D4FD72
:100F1000801B6428F0D828688003F7D42078DFF895
:100F2000AC8280074FF0000A3ED5A748001D01683B
:100F300011F00C0F08D00068C0F3810002280BD11B
:100F4000D9F80000400207D42868800716D5E06869
:100F5000012800D112E033E1E068B8B10120C8F8FF
:100F60000000FFF7A9FD064605E000BFFFF7A4FD5E
:100F7000801B0228C0D828688007F7D52868216917
:100F800020F0F80040EAC10028600DE0C8F800A099
:100F9000FFF792FD064604E0FFF78EFD801B022856
:100FA0001FD828688007F7D42078000722D5864FFD
:100FB00087486169703771B101210160FFF77CFDDD
:100FC000064604E0FFF778FD801B022809D8386840
:100FD0008007F7D50EE0C0F800A0FFF76DFD0646CC
:100FE00005E082E0FFF768FD801B02287DD83868A5
:100FF0008007F7D42078400768D5DFF8CCB1002708
:101000000BF13C0BDBF80000C0000BD4DBF8001048
:1010100041F08051CBF80010DBF80000012700F010
:10102000805000906B4E3068C00510D4306840F49A
:1010300080703060FFF740FD009005E0FFF73CFD59
:101040000099401A022850D83068C005F6D55E4E87
:10105000A0686C3601280FD00528306810D020F029
:1010600001003060306820F004003060A068B8B142
:10107000FFF722FD00900FE0306840F00100F4E738
:1010800040F004003060F7E7FFF716FD0099411AC1
:1010900041F28830814266D830688007F4D50EE08E
:1010A000FFF70AFD009007E0FFF706FD0099411ADF
:1010B00041F28830814256D830688007F4D42FB18D
:1010C000DBF8001021F08051CBF80010A069C8B304
:1010D0003D49091D0968C1F3810102294AD002284E
:1010E000504607D0C8F8600000E03CE0FFF7E4FCA1
:1010F00004463BE04746C8F86000FFF7DDFC0646C3
:1011000005E000BFFFF7D8FC801B02282BD8286819
:101110008001F7D4D4E907010843A16A2E4A49089F
:1011200002EB0141626A41EA8211084394F82C10F3
:1011300040EA0161C9F8001001203866FFF7BCFCE5
:10114000044606E03EE000BFFFF7B6FC001B0228A5
:1011500009D828688001F7D534E000BFFFF7ACFC60
:10116000001B022802D90320BDE8F88F28688001FF
:10117000F4D427E00128F7D0D9F80000E26900F4A0
:10118000800191421CD1226A00F03F01914217D1A7
:1011900047F6C071626A0140B1EB821F10D1A26AAA
:1011A0004FF0FF3300F4403103EB5202B1EB024F3A
:1011B00006D194F82C1000F07060B0EB016F01D0F4
:1011C0000120D1E70020CFE7043802400000474269
:1011D000800E4742007000400000FFFF70477047DC
:1011E00010B590F83C20012A22D0012280F83C2042
:1011F000CA688C6822F4407222434C6822F48062F0
:1012000022430C6822F4006222430C6922F48052CB
:1012100022434C6922F400522243C969002322F47C
:1012200080420A4301684A6480F83C30002010BDC7
:10123000022010BD70B590F83C20012A32D0012464
:1012400080F83C40022280F83D2003685A689D687F
:1012500022F070060A6832435A60134B02689A42C1
:1012600014D0B2F1804F11D0104B9A420ED0104BD7
:101270009A420BD00F4B9A4208D00F4B9A4205D09E
:101280000E4B9A4202D00E4B9A4204D1496825F087
:1012900080031943916080F83D40002180F83C10A4
:1012A000084670BD022070BD0000014000040040EF
:1012B00000080040000C00400004014000400140D4
:1012C0000018004010B5040003D094F83D0010B1A0
:1012D00007E0012010BD002084F83C00204600F00B
:1012E0001FF8022084F83D00211D206800F05EFDFB
:1012F000012084F8460084F83E0084F83F0084F81A
:10130000400084F8410084F8420084F8430084F8E7
:10131000440084F8450084F83D00002010BD000022
:1013200008B500680649884208D10648016841F0BE
:1013300001010160006800F00100009008BD00009C
:10134000000001404438024090F83D10012901D0CE
:1013500001207047022180F83D100168CA6842F000
:101360000102CA6000681149884214D0B0F1804F70
:1013700011D00F4988420ED00E4988420BD00E4939
:10138000884208D00D49884205D00D49884202D0D4
:101390000C49884204D1816801F00701062903D075
:1013A000016841F001010160002070470000014028
:1013B0000004004000080040000C00400004014010
:1013C000004001400018004070B5044690F83C0011
:1013D0000025012817D0012684F83C60022084F8FB
:1013E0003D002068826822F0770222F47F4282600A
:1013F0000868502838D00DDC20284FD005DC90B389
:10140000102811D14AE0022070BD302846D0402873
:101410000AD13BE060282FD070280DD0B0F5805F56
:1014200003D0B0F5005F12D0012584F83D600020A4
:1014300084F83C00284670BDCB68D1E901212068C2
:1014400000F01CFD2068816841F0770109E0CB685D
:10145000D1E90121206800F011FD2068816841F484
:1014600080418160E1E719E0CA684968206800F0BE
:10147000D9FD5021206806E0CA684968206800F05C
:10148000E2FD6021206800F003FDCEE7CA684968EC
:10149000206800F0C7FD40212068F4E7226801467B
:1014A0001046F0E770472DE9F04104460068C66831
:1014B00005694FF00007A90713D5B10711D5F91E2B
:1014C000016101202077206880698007204602D0D2
:1014D000FFF7E8FF04E000F0A9F8204600F03BF930
:1014E0002777680716D5700714D521686FF00400B8
:1014F0000861022020772068806910F4407F204630
:1015000002D0FFF7CFFF04E000F090F8204600F093
:1015100022F92777280715D5300713D521686FF0F2
:1015200008000861042020772068C06980072046F1
:1015300002D0FFF7B7FF04E000F078F8204600F093
:101540000AF92777E80616D5F00614D521686FF05A
:1015500010000861082020772068C06910F4407FDF
:10156000204602D0FFF79EFF04E000F05FF820461F
:1015700000F0F1F82777E80708D0F00706D02168D7
:101580006FF001000861204600F0E6F8280608D553
:10159000300606D521686FF0800008612046FFF70D
:1015A0001DFE680608D5700606D521686FF040005C
:1015B0000861204600F0D7F8A8060AD5B00608D57D
:1015C00021686FF0200008612046BDE8F041FFF778
:1015D00006BEBDE8F081000010B586B004461421B7
:1015E0006846FEF718FF0E492068884216D10D485C
:1015F0000021026842F010020260006800F0100052
:1016000005904FF4D44000900220CDE90101012063
:10161000CDE9031069460448FFF750F906B010BD44
:10162000000001403038024000100240704770B5A1
:10163000044690F83C0000260D4601280FD00120FA
:1016400084F83C006AB1042A1DD0082A2FD00C2A45
:101650003FD00126002084F83C00304670BD0220B7
:1016600070BD206800F01CFC2068816941F0080111
:1016700081612068816921F00401816120688169AC
:101680002A69114311E0206800F03AFC2068816962
:1016900041F4006181612068816921F48061816188
:1016A000206881692A6941EA02218161D2E72068C4
:1016B00000F05CFC2068C16941F00801C16120684C
:1016C000C16921F00401C1612068C1692A6911431F
:1016D00011E0206800F07EFC2068C16941F40061DF
:1016E000C1612068C16921F48061C1612068C1695C
:1016F0002A6941EA0221C161ACE710B5040003D0B8
:1017000094F83D0010B107E0012010BD002084F8DE
:101710003C00204600F01EF8022084F83D00211D08
:10172000206800F043FB012084F8460084F83E0066
:1017300084F83F0084F8400084F8410084F84200B7
:1017400084F8430084F8440084F8450084F83D00A0
:10175000002010BD704770470068B0F1804F01D184
:10176000FFF7B0B97047704770477047F8B5016828
:1017700004460868CA684B6910F00F0F4FF0000567
:1017800059D003F0010602F49077374365D0C107C2
:1017900005D0D10503D5616C41F0010161644107B9
:1017A00005D5D90703D0616C41F00201616481075E
:1017B00005D5D90703D0616C41F0040161640107CC
:1017C00007D502F02001314303D0616C41F00801DC
:1017D0006164616C00293AD0800604D5900602D578
:1017E000204600F070FC20684069616CC0F38010F6
:1017F000090700D460B3204600F03EFC2068406931
:10180000400621D52068143050E8001F21F0400127
:1018100040E80012002AF5D1E06BA8B172490165D9
:10182000E06BFEF7EDFE002811D0E06B016D01B01A
:10183000BDE8F040084783060FD593060DD5204636
:10184000BDE8F84000F03FBC2046FFF78EFFF8BD32
:101850002046FFF78AFF6564F8BD266B2023012E22
:101860007ED1C6067CD5D6067AD508684868009031
:1018700048694FF0020640064DD5E26B106840689B
:101880004FF480770004000C3AD0A18D814237D903
:10189000E085D069B8422DD020680C3050E8001F98
:1018A00021F4807140E80012002AF5D1206814303C
:1018B00050E8001F21F0010140E80012002AF5D194
:1018C0002068143050E8001F21F0400140E8001269
:1018D000002AF5D184F84230256320680C3050E8A6
:1018E000001F21F0100140E80012002AF5D1E06B42
:1018F000FEF73DFE6663A08DE18D401A81B206E0E1
:10190000A18D8142A8D1D069B842A5D16663204695
:10191000FFF72AFFF8BDA08DE18D401A81B2E08D5E
:101920000028F7D00029F5D020680C3050E8002FAF
:1019300022F4907240E80027002FF5D1206814307F
:1019400050E8002F22F0010240E80027002FF5D1D7
:1019500084F84230256320680C3050E8002F00E006
:1019600006E022F0100240E80023002BF3D1CDE77F
:1019700005062BD5150629D594F841002128C9D193
:10198000A068B0F5805F01D12069B0B1206A411C28
:101990002162216800784860E08C401E0004000C41
:1019A000E084B7D12068C16821F08001C16020685F
:1019B000C16841F04001C160F8BD206A0088C0F3F1
:1019C00008004860206A801C2062E5E74006F3D5E5
:1019D0005006F1D5CA68204622F04002CA6084F859
:1019E000413000F090F8F8BD6B20000870B504009D
:1019F00004D094F84100002510B106E0012070BD2C
:101A000084F84050204600F023F8242084F8410058
:101A10002068C16821F40051C160204600F0B4FB89
:101A20002068016921F4904101612068416921F039
:101A30002A0141612068C16841F40051C1606564B8
:101A4000202084F8410084F842006563002070BDC6
:101A500070B586B0064614216846FEF7DCFC2449C2
:101A60003068884241D123480025016841F01001C7
:101A70000160006800F0100005901E4814380168ED
:101A800041F0010101600068694600F00100059025
:101A90004FF4C06000900220CDE9010503200390BF
:101AA000072004901448FEF709FF154C13482060E6
:101AB0004FF00060C4E901054014C4E903508010F0
:101AC0006561C4E90650256220466562FEF77AFE2C
:101AD00008B1FEF74AFDF463002205212520A66324
:101AE000FFF788F82520FFF777F806B070BD0000F3
:101AF00000100140443802400000024040640240AF
:101B00007801002070477047FEE70000094808B5DB
:101B1000016841F4800101600068002200F4800047
:101B2000009005213A20FFF765F8BDE808403A200B
:101B3000FFF752B83038024030B587B014216846FC
:101B4000FEF769FC16480024016841F010010160AD
:101B5000016801F010010591016841F00401016084
:101B6000016801F004010591016841F00101016083
:101B700000680C4D00F0010005900122402128462C
:101B8000FEF794FF402000900120CDE901040220DF
:101B9000039069462846FEF791FE07B030BD00006D
:101BA000303802400008024010B596B000240F946F
:101BB00010941194129413941C2168461494FEF707
:101BC0002AFC202107A8FEF726FC3548334901608E
:101BD000A721C0E9011440F2E731C0E903148021D4
:101BE000C0E90541FFF76EFB08B1FEF7BEFC4FF4FC
:101BF00080500F900FA92A48FFF7E6FB08B1FEF7C7
:101C0000B4FC2748FFF779FD08B1FEF7AEFC13944A
:101C100013A923481494FFF70DFB08B1FEF7A5FCA8
:101C20006020CDE9000402940394049405940022FA
:101C300069461B480694FFF7FAFC08B1FEF795FCCD
:101C4000042269461648FFF7F2FC08B1FEF78DFC46
:101C5000082269461248FFF7EAFC08B1FEF785FC46
:101C60000C2269460E48FFF7E2FC08B1FEF77DFC46
:101C70000794089409944FF400500A94CDE90B405E
:101C800007A907480E94FFF7ABFA08B1FEF76DFC01
:101C90000348FFF7A1FC16B010BD00000000014092
:101CA000E80000200C4810B50A4901604FF4E1310A
:101CB0004160002181600C22C160C0E90412816191
:101CC000C161FFF793FE002803D0BDE81040FEF786
:101CD0004CBC10BD0010014030010020FEE7FEE7C3
:101CE00010B54FF0E020006900F062FC012803D03D
:101CF000BDE8104000F046BC10BD000030B593B008
:101D000030216846FEF787FB14210CA8FEF783FB01
:101D10001D480025016841F080510160006800F015
:101D2000805011901948016841F4804101600068B9
:101D3000022400F4804011900120039010200490B0
:101D4000009406940820CDE90750A820CDE90904A5
:101D500004200B906846FFF78BF808B172B6FEE7D7
:101D60000CA90F2081E831004FF4A0500F904FF4E0
:101D70008050109005210CA8FEF76EFF002801D0BE
:101D800072B6FEE713B030BD40380240007000402C
:101D90000248016841F470010160704788ED00E07D
:101DA0000148FFF780BB0000D8010020F0B50268B1
:101DB000274B284D284E294F294C4FF0804C9842F4
:101DC00009D0604507D0A84205D0B04203D0B84240
:101DD00001D0A04204D122F0700E4A6842EA0E02FD
:101DE00098421BD0604519D0A84217D0B04215D0F8
:101DF000B84213D0A04211D01A4DA8420ED01A4DAD
:101E0000A8420BD0194DA84208D0194DA84205D0C0
:101E1000184DA84202D0184DA84203D122F44075B3
:101E2000CA682A434D6922F080022A438D68C56240
:101E30000D688562984201D0A04201D10969016311
:101E4000016841F004010160012141610260F0BDBF
:101E5000000001400004004000080040000C004069
:101E6000000401400040014000440140004801409E
:101E700000180040001C00400020004010B584689D
:101E800042EA032224F47F440A432243826010BDC5
:101E9000826822F070020A4342F0070181607047B5
:101EA000F0B5036A026A22F00102026242688469A4
:101EB000124E24F073050C682C4323F002058B6846
:101EC0002B430D4DA84201D0B04205D123F00807A5
:101ED000CB683B4323F00403A84201D0B04205D1B4
:101EE0004D6922F4407215438A692A434260846135
:101EF000496841630362F0BD0000014000040140F5
:101F0000F0B5026A036A23F0100303624368846930
:101F10000D6824F4E64444EA05248D6822F020028A
:101F200042EA05120F4D104EA84201D0B04206D130
:101F3000CF6822F0800242EA071222F04002A84253
:101F400001D0B04207D14D6923F4406343EA8503D1
:101F50008D6943EA85034360846149688163026255
:101F6000F0BD00000000014000040140F0B5026A2D
:101F7000036A23F4807303624368C46922F4007225
:101F800024F073050C68124E2C438D6842EA05223A
:101F90000E4DA84201D0B04206D1CF6822F40062B3
:101FA00042EA072222F48062A84201D0B04207D15F
:101FB0004D6923F4405343EA05138D6943EA051341
:101FC0004360C4614968C1630262F0BD0000014022
:101FD0000004014030B5046A026A22F480520262B1
:101FE0004268C3690D6823F4E64343EA05238D681C
:101FF00024F4005444EA0534084DA84202D0084DA8
:10200000A84204D14D6922F4804242EA851242601E
:10201000C36149680164046230BD000000000140F2
:102020000004014010B5036A046A24F0010404624C
:10203000846924F0F00444EA021423F00A020A43FB
:102040008461026210BD10B5036A046A24F01004B2
:102050000462846923F0A00324F4704444EA023249
:1020600043EA01118261016210BD10B5806B00214D
:10207000C185FFF77AFB10BD01680C3151E8002FD4
:1020800022F4907241E80023002BF5D1016814314D
:1020900051E8002F22F0010241E80023002BF5D186
:1020A000016B012909D101680C3151E8002F22F0A0
:1020B000100241E80023002BF5D1202180F84210C6
:1020C00000210163704708B590F84210222901D021
:1020D000022008BD82684FF480539A4201D1016901
:1020E00021B1816A9A421BD04AB10AE00268816A32
:1020F0005268C2F308020A80816A891C08E00269FA
:1021000072B10268526802F07F020A70816A491C4B
:102110008162C18D491E0904090CC18503D01BE0F1
:1021200002685268F1E70168CA6822F02002CA60BA
:102130000168CA6822F48072CA6001684A6922F0A4
:1021400001024A61202180F8421000214163026BA4
:10215000012A03D0FFF7D6FC002008BD0163016807
:102160000C3151E8002F22F0100241E80023002B2F
:10217000F5D101680A68D20602D50A68496800915B
:10218000818DFFF7F1FAE7E770B504460068016951
:10219000E26821F44051114301612169A068E269BC
:1021A00008436169114308432168CA6849F20C6316
:1021B0009A430243CA6020684169A26921F44071D0
:1021C0001143416131492068884202D03049884238
:1021D00002D1FEF70BFE01E0FEF7F8FDE2690023F5
:1021E000192164253226B2F5004F626828D0A0FB81
:1021F0000101930F9200FEF797F80146B0FBF5F04E
:102200006FF01802504301EB800006EB0010B0FBAA
:10221000F5F000F0F002B1FBF5F002EB0012B1FBBB
:10222000F5F06FF01803584301EB800006EB001047
:10223000B0FBF5F000F00F0021681044886070BD1D
:10224000A0FB010192185B41FEF76EF80146B0FB5E
:10225000F5F00201B1FBF5F06FF01803584301EB04
:10226000800006EBC000B0FBF5F000F0F80002EBD8
:102270004002B1FBF5F0584301EB800006EBC000D3
:10228000B0FBF5F000F00700D6E7000000100140B9
:10229000001401400148FFF769BA00003001002036
:1022A000FEE70907090E002804DB00F1E02080F8B2
:1022B0000014704700F00F0000F1E02080F8141DBA
:1022C0007047000010B5040006D0094800F09EF8E1
:1022D00020680178012902D072B6FEF746F9001D88
:1022E00000F094F8BDE81040014800F0ADB80000DF
:1022F0005C00002010B5040006D0084800F086F805
:1023000020680178012902D072B6FEF72EF900216B
:102310000170BDE81040014800F096B85C00002054
:1023200070B5050021D0124C207808281DD2114824
:1023300000F06CF80F4821780C3000EB01100122FE
:10234000286002702A68121D0FD000204FEA000397
:1023500042F82030401C0228FAD31372491C217025
:10236000044800F071F8012070BD72B6FEF7FDF868
:10237000000000205C00002010B5040006D00948D1
:1023800000F044F820680178012902D072B6FEF707
:10239000ECF8001D00F058F8BDE81040014800F0CE
:1023A00053B800005C000020FEF794FBFFF7A6FC8A
:1023B000FFF7C2FBFFF7AAFBFFF774FCFFF7F4FB84
:1023C000094D4FF4FA74012240212846FEF76EFBB6
:1023D0002046FEF761FA002240212846FEF766FB00
:1023E0002046FEF759FAEEE7000802400648416B26
:1023F000096829B1416BC968C96849688162704739
:102400004FF0FF31FAE700001400002010B510B1C2
:10241000027A022A02D372B6FEF7A7F8EFF305811B
:1024200071B15021EFF3118381F31188BFF34F8F06
:10243000BFF36F8F40F82230017A491C017210BD42
:10244000BDE8104000F038B810B5002809D000BF32
:10245000EFF3058141B1017A491EC9B20172022927
:1024600006D372B6FEF781F8BDE8104000F044B81C
:1024700050F8210080F3118810BDD0E901320169C4
:102480009A60D0E901235A604A68824201D1826889
:102490004A60002202610868401E086008687047B0
:1024A00042684A6093688B609368596091600861E4
:1024B0000168491C01607047502080F31188BFF308
:1024C0004F8FBFF36F8F0A494868401C486001284E
:1024D0000CD10848006810F0FF0F07D0502080F39F
:1024E0001188BFF34F8FBFF36F8FFEE77047000077
:1024F0005000002004ED00E00849486828B1401E63
:10250000486001D180F311887047502080F3118812
:10251000BFF34F8FBFF36F8FFEE700005000002026
:10252000164810B5016B11B10121C16110BD002128
:10253000C1610169124A01E0B9B1491E01EB810391
:1025400052F82330002BF7D001EB810302EB83021A
:1025500002F1080453685B685360A34201D15B68D1
:102560005360DA680260016110BD502080F3118869
:10257000BFF34F8FBFF36F8FFEE700001400002002
:102580002002002010B5502080F31188BFF34F8F38
:10259000BFF36F8F00F01AF818B104494FF0805064
:1025A0000860002080F3118810BD000004ED00E0F9
:1025B0000548416919B1006B18B10020704701202E
:1025C0007047022070470000140000202DE9F04100
:1025D0002E4C0027206B28B1A069401CA061384612
:1025E000BDE8F081E668761CE66013D1606B006898
:1025F00038B1502080F31188BFF34F8FBFF36F8F36
:10260000FEE7606BA16B6163A063206A401C2062DF
:10261000FFF7ECFEA06ADFF87880864209D3606B92
:102620000068A0B1606BC068C5686868864211D256
:10263000A0622068C06A00EB800158F821000128E0
:1026400000D90127E0690028C9D00127C7E74FF06A
:10265000FF30EDE7281DFFF710FFA86A18B105F15C
:102660001800FFF70AFFE86A2169884200D9206153
:1026700000EB800108EB8100291DFFF711FFE86ADC
:102680002168C96A8842CAD30127C8E7140000201C
:10269000200200204FF04070E1EE100A7047000663
:1026A00010160006101600000000000000000102D5
:1026B00003040607080900000000010203040000EB
:1026C000E0260008000000205C000000C4010008B3
:1026D0003C2700085C000020EC1E0000E001000820
:1026E00000000000010000001000000000000000D9
:1026F0000024F400000000000000000000000000C2
:1027000000000000000000000000000000000000C9
:1027100000000000000000000000000000000000B9
:1027200000000000000000000000000000000000A9
:0C27300000000000AAAAAAAA00000000F5
:040000050800018965
:00000001FF
