:020000040800F2
:10000000607C0020E1030008B5740008FB5700087D
:10001000716C00089F220008518F0008000000004A
:1000200000000000000000000000000021030008A4
:100030001D2C0008000000007D03000873830008E9
:10004000FB030008FB030008FB030008FB03000898
:10005000FB030008FB0300081F2C0008FB0300083B
:10006000FB030008FB030008FB030008FB03000878
:10007000FB030008FB030008FB030008FB03000868
:10008000FB030008FB030008FB030008FB03000858
:10009000FB030008FB030008FB030008FB03000848
:1000A000FB030008FB030008FB030008FB03000838
:1000B00031840008FB030008FB030008FB03000871
:1000C000FB030008FB030008FB030008FB03000818
:1000D000FB0300088D8D0008FB030008FB030008EC
:1000E000FB030008FB030008FB030008FB030008F8
:1000F000FB030008FB030008FB030008FB030008E8
:10010000FB030008FB030008FB030008FB030008D7
:10011000FB030008FB030008FB030008FB030008C7
:10012000FB030008FB0300086D2B0008FB0300081D
:10013000FB030008FB030008FB030008FB030008A7
:10014000A1220008AD220008FB030008FB03000801
:10015000FB030008FB030008FB030008FB03000887
:10016000FB030008FB030008FB030008FB03000877
:10017000FB030008FB030008FB030008000000006D
:10018000FB030008FB03000800F002F800F0B8F8D9
:100190000AA090E8000C82448344AAF10107DA45E2
:1001A00001D100F0ADF8AFF2090EBAE80F0013F07C
:1001B000010F18BFFB1A43F00103184710C50000D8
:1001C00030C500000A444FF0000C10F8013B13F05A
:1001D000070408BF10F8014B1D1108BF10F8015BA0
:1001E000641E05D010F8016B641E01F8016BF9D193
:1001F00013F0080F1EBF10F8014BAD1C0C1B09D1EA
:100200006D1E58BF01F801CBFAD505E014F8016B5B
:1002100001F8016B6D1EF9D59142D6D370470000ED
:100220000023002400250026103A28BF78C1FBD8FF
:10023000520728BF30C148BF0B6070476E2900F0DD
:100240003385702900F07D8666290BF0608665296C
:100250000BF05D8667290BF05A8661290BF05986F1
:1002600003681B0A28BF41F08001692900F0F4816E
:10027000642900F0F181752900F0EE816F2900F00A
:100280000A86782900F04986E92900F0A585E42945
:1002900000F0A285F52900F09F85EF2900F0078680
:1002A000F82900F048860368DB0928BF41F0800187
:1002B000632901F05582732901F05A82E32901F084
:1002C0006582F32901F06A82002070471FB50BF0A8
:1002D00019FE9DE8030000F0E9FB01F0B9FA040003
:1002E000002000210BF0F8FD401C60600020002180
:1002F0000BF0DCFDE0601FBD10B501F0ADFA10BDE4
:1003000001F078FA1146FFF7E1FF09F047FF01F02D
:100310005DFB03B4FFF7F0FF03BC01F08DFB0000B1
:100320002C4B19680868B0E8F04F80F30988BFF3D8
:100330006F8F4FF0000080F31188704700000000BD
:1003400008480068006880F308884FF0000080F3D8
:10035000148862B661B6BFF34F8FBFF36F8F00DFB3
:1003600000BF00BF08ED00E0DFF80C00016841F4B9
:1003700070010160704700BF88ED00E0EFF3098075
:10038000BFF36F8F134B1A681EF0100F08BF20EDDC
:10039000108A20E9F04F106009B44FF0500080F34C
:1003A0001188BFF34F8FBFF36F8F0AF0E7FF4FF055
:1003B000000080F3118809BC19680868B0E8F04FA4
:1003C0001EF0100F08BFB0EC108A80F30988BFF34D
:1003D0006F8F704718000020EFF305807047000012
:1003E0000948804709480047FEE7FEE7FEE7FEE7C9
:1003F000FEE7FEE7FEE7FEE7FEE7FEE70448054905
:10040000054A064B70470000218400088901000856
:1004100060640020607C0020607400206074002014
:100420000B3020F0070070472DE9F04117460E46CB
:100430000446FFF7F5FFA042054633D9002F1CBF45
:1004400006F10C0009F004FE30467468F4B121682E
:10045000A94217D305F1080291423CBF616841608F
:1004600007D3626861194A602268521B0A604160C2
:100470002560002F1CBF06F10C0009F043FE201D73
:10048000BDE8F08120466468002CE0D12946304662
:1004900000F0F8FA0028D7D1002F1CBF06F10C009D
:1004A00009F030FE0020BDE8F08110B5044600F0F0
:1004B000E1FA01682046BDE810400122B4E770B5BA
:1004C00016460D46041F002808BF70BD002E1CBF35
:1004D00005F10C0009F0BCFD2B465868002818BF38
:1004E000A04238BF0346F8D31968CA18A24218BF01
:1004F0005C6003D122681C461144196021680A1906
:10050000824218BF606004D142686260006808449B
:100510002060002E1CBF05F10C0009F0F3FD70BD3A
:1005200010B5044600F0A6FA01682046BDE8104068
:100530000122C4E753EA020C00F069802DE9F04B78
:100540004FF00006002B1FBFB3FA83F503FA05F442
:1005500024FA05F65E4012BF1643B2FA82F502FA9B
:1005600005F4C5F120051EBF22FA05FC44EA0C047F
:10057000203556EA044C4FEA144418BF641C4FF06F
:1005800000084FF00009904271EB030C39D30029A9
:1005900019BFB1FA81F701FA07F6B0FA80F700FA4D
:1005A00007F6C7F120071EBF20FA07FC46EA0C0633
:1005B0002037B6FBF4FCA7EB0507103F07F01F0B35
:1005C000CBF120060CFA0BFB2CFA06F644BFB3461F
:1005D0000026202FA4BF5E464FF0000B5BEA060CFE
:1005E00008BF4FF0010B19EB0B09ABFB027C48EB8A
:1005F0000608C01B06FB02CC0BFB03CC71EB0C0105
:10060000C1E70B46024641464846BDE8F08B13B5AC
:100610004FF000004FF00001AFF30080BDE81C4038
:10062000704700007CB51D4616460C00009001D0B6
:100630002044401E074B7B442A46694601903046C1
:1006400000F04BFB05461CB10020694600F058FB4A
:1006500028467CBDD10600002DE9F0410646002465
:1006600010687529314616A510D000F089FA0028C7
:1006700002DA404213A507E031688A0701D512A5C6
:1006800002E0490704D511A5012401E000F081FA38
:1006900000210A2206F1240709E0B0FBF2FCB0FBBE
:1006A000F2F302FB1C00303078541846491C002835
:1006B000F3D123462A463046BDE8F04100F09BBA0C
:1006C000000000002D0000002B00000020000000B2
:1006D0002DE9F05F894604464FF0000ADFF874B157
:1006E000FB44C0F820A02046E1688847002874D069
:1006F000252806D0D4E901219047206A401C2062B9
:10070000F1E700265F462046E16888472028054635
:1007100007DB312D05D2781910F8200C08B10643FB
:10072000F1E7B00701D526F00406C4F81CA00027A5
:10073000C4F818A02A2D09D0284609F081FC38B346
:1007400004EB8708303DC8F8185019E059F8041B2D
:10075000204604EB87029161E1688847012F054636
:1007600018D1E069002820DA26F020061DE0D8F82C
:10077000180000EB800005EB40003038C8F8180086
:100780002046E1688847054609F05AFC0028EED16A
:10079000012F0AD02E2D08D12046E16888477F1C02
:1007A0000546022F46F02006C4DBA069002803DAC4
:1007B000404246F00106A061F00701D026F0100685
:1007C0006C2D0BD0682D09D04C2D39D06A2D35D029
:1007D000742D35D07A2D33D016E038E0E1682F46FD
:1007E00020468847B842054609D16C2F26D04FF4E1
:1007F0008060E168064320468847054604E06C2F88
:100800001AD04FF4807006430DB3A5F141001928AA
:1008100002D8203546F400664A462946204626601E
:100820004E46FFF70BFD80B101280BD0F61D26F0D8
:10083000070000F1080956E74020E4E78020D8E7E8
:100840000020D6E706F104094DE7284652E7206A62
:10085000BDE8F09F2CBD000040EA0103024630B520
:100860009B0710D14FF0013400E008C208C91D1BDE
:100870009D4315EAC41FF8D013F0FF0102F8011BD5
:100880000DD01B0AF8E711F8013B002B02F8013BE1
:1008900005D011F8013B002B02F8013BF3D130BD2C
:1008A00010B5431C02E010F8011B71B18107FAD1A9
:1008B0004FF0013202C88C1A8C4314EAC211F9D0ED
:1008C000C01A0A0603D0C01E10BDC01A10BD0A040B
:1008D00001D0801E10BD0902FCD0401E10BD032AAD
:1008E00040F2308010F0030C00F0158011F8013B4D
:1008F000BCF1020F624498BF11F801CB00F8013B34
:1009000038BF11F8013BA2F1040298BF00F801CBF7
:1009100038BF00F8013B11F0030300F02580083ACE
:10092000C0F0088051F8043B083A51F804CBA0E825
:100930000810F5E7121D5CBF51F8043B40F8043B7A
:10094000AFF30080D20724BF11F8013B11F801CBAF
:1009500048BF11F8012B24BF00F8013B00F801CB80
:1009600048BF00F8012B704710B5203AC0F00B804B
:10097000B1E81850203AA0E81850B1E81850A0E8A3
:100980001850BFF4F5AF5FEA027C24BFB1E81850FD
:10099000A0E8185044BF18C918C0BDE810405FEA6D
:1009A000827C24BF51F8043B40F8043B08BF7047E9
:1009B000D20728BF31F8023B48BF11F8012B28BFEE
:1009C00020F8023B48BF00F8012B704702F0FF03FC
:1009D00043EA032242EA024200F002B84FF000026A
:1009E0000429C0F0128010F0030C00F01B80CCF141
:1009F000040CBCF1020F18BF00F8012BA8BF20F8AF
:100A0000022BA1EB0C0100F00DB85FEAC17C24BF02
:100A100000F8012B00F8012B48BF00F8012B7047AC
:100A20004FF0000200B5134694469646203922BF87
:100A3000A0E80C50A0E80C50B1F12001BFF4F7AFD2
:100A4000090728BFA0E80C5048BF0CC05DF804EBB4
:100A5000890028BF40F8042B08BF704748BF20F822
:100A6000022B11F0804F18BF00F8012B7047704720
:100A7000704770470048704708640020704770470F
:100A80007047704738B504460A4600206946AFF300
:100A90000080002808BF38BD02460099204600F0BB
:100AA00063FA012038BD012000F09CBEF8B5AFF319
:100AB0000080054600200C46102000BF0646A819FD
:100AC000A0420DD9324669460020AFF300800700EE
:100AD00008BF00F087FE0098A04218BF0546C41961
:100AE000FFF7C8FF05600746F01D20F00700461914
:100AF000284600F00AF8B44208BFF8BDA21B3146F0
:100B00003868BDE8F84000F02FBA00210160C0E964
:100B100001100C3009F0CABA1020704710B500F06F
:100B20001FFA006810BD10B5044600F019FA046001
:100B300010BD70B5044685690068C10601D5302630
:100B400000E02026C00707D070BDD4E9012130465F
:100B50009047206A401C20626D1EF6D570BD70B5AE
:100B6000044685690078C00707D170BDD4E901212A
:100B700020209047206A401C20626D1EF6D570BD73
:100B800009684A0501D540B27047C905FCD500B2D5
:100B9000704709684A0501D5C0B27047C905FCD540
:100BA00080B2704770B50C460546012A05D02878FA
:100BB000800600D5EA69002302E0012305E05B1C02
:100BC000934202D2E05C0028F9D1A869E618C01A65
:100BD000A861286A184428622846FFF7AAFF04E0A3
:100BE000D5E9012114F8010B9047B442F8D3284607
:100BF000FFF7B5FF70BD2DE9F0470D4699469246C7
:100C0000044600F124080168880604D5E06921F053
:100C10001001216000E00120A84201DD471B00E037
:100C20000027A1697A1902EB0900081AA06120784F
:100C3000C00602D42046FFF77CFF002608E0D4E976
:100C400001211AF806009047206A401C761C206299
:100C50004E45F4DB2078C0060AD52046FFF769FF31
:100C600006E0D4E9012130209047206A401C206230
:100C7000381EA7F10107F4DC07E0D4E9012118F8D8
:100C800005009047206A401C2062281EA5F101053E
:100C9000F3DC2046FFF763FF2078000602D5022030
:100CA000BDE8F0870120FBE711680268006A530580
:100CB00001D508700AE0D30501D5088006E01306C7
:100CC00003D5C217C1E9000200E0086001207047A7
:100CD00001694A1C02610878704700B58FB0CDE900
:100CE00001310021059105497944CDE903101146F0
:100CF0006846FFF7EDFC0FB000BD0000E5FFFFFF09
:100D00000A6802F8010B0A607047D1E900239A4291
:100D100002D2531C0B601070704700002DE9FF5F7A
:100D200015468A460446DFF8AC80F8440027D8E927
:100D300000103E46CDE9001010E03AF816106A4661
:100D400002A800F02FFD411C07D02178890603D5A9
:100D5000E269391891420DD80744761C2078800644
:100D600002D5E069B84205DDAE42E6DB3AF816008E
:100D70000028E2D1A069C01BA0612046FFF7D9FE80
:100D8000D8E90010CDE90010002017E03AF818105B
:100D90006A4602A800F006FDB0F1FF3F81460BD085
:100DA00000250DF1080B05E0D4E901211BF8050031
:100DB00090476D1C4D45F7D308F10100B0428046C5
:100DC000E4DB206A384420622046FFF7C8FEBDE815
:100DD000FF9F0000F6B600002DE9F0418046D21DCD
:100DE00022F007020025D2E90002F52915A614D049
:100DF000011E72F1000106DA0023D0EB030063EB61
:100E0000020211A608E0D8F800108B0701D50FA642
:100E100002E0490701D50EA601251146002408F17C
:100E2000240704E000F0BFF830323A55641C50EA61
:100E30000102F7D12B46324621464046BDE8F0413B
:100E4000FFF7D9BE000000002D0000002B000000BD
:100E50002000000030B4002100F1240408E002F07A
:100E60000705D208303542EA4372DB086554491C55
:100E700052EA0305F3D10468002310A2250707D521
:100E8000A40600D421B1C46901230DA2641EC4616B
:100E900030BCFFF7B0BE10B5044621461068FFF71E
:100EA00078FE02462046BDE810400023D2E7D21D5E
:100EB00022F00701D1E90023CCE700000000000088
:100EC00030000000F0B40D460188090502D5214C20
:100ED0007C4402E01F4C7C440E34002100F12406C7
:100EE00008E002F00F071209E75D42EA03721B09EE
:100EF0007754491C52EA0307F3D102780023120702
:100F000004D5702D06D009B1022311342246F0BC5D
:100F1000FFF771BE01231034F8E770B504460D46A3
:100F200021461068FFF735FE024629462046BDE8F7
:100F300070400023C6E7D21D22F00703D3E9002347
:100F4000C0E70368126843F0200303600823C3610D
:100F50000023B7E758B50000004870470064002040
:100F6000004870470064002030B404468C46436853
:100F7000002B18BF634538BF1846F8D303681844E0
:100F8000604507D0C81C20F0070000F1040CACEB52
:100F90000100121A2146CCF8002030BC00220CF1CE
:100FA0000400FFF78CBA30B5B0F10A024FEA900E98
:100FB00071F100034EEA817EB0EB0E0061EB91010E
:100FC0004FEA101E4EEA017E10EB0E0041EB1111AC
:100FD0004FEA102E4EEA016E10EB0E0041EB11218C
:100FE0004FEA104E4EEA014E10EB0E0041EB11415C
:100FF000401841F100014FEAD00040EA41704FEA49
:10100000D10110EB80054FEA810444EA907444EB6F
:1010100001046D1944EB0404521BA3414FF000037B
:1010200048BF0A3200D530BD401C41F1000130BD3F
:1010300070472DE9FF4F0C461E464FF0FF378BB02F
:10104000D2E90001DDF860800A908A46C1F30A55B2
:1010500005B93D46002108464FF00000BAF1000FE7
:1010600000F4400005DA00EB80004FF4400101EA93
:1010700050004FEA9059B9F1010F00DDB9460A98C6
:1010800050EA4A000ED044F61050A5F2FF35454311
:101090002F14B8F1000F1ED07542291E1EDDC9F1B4
:1010A00000021CE0B8F1010F4FF0000001D0302128
:1010B00003E0F24305E02154401CB042FBDB304624
:1010C0000022002121540B99C1F80880C1E90020B9
:1010D0000FB0BDE8F08FBD1B6D1CDEE74A4600DA9D
:1010E000694206A800F000FC06AB93E8070003ABDA
:1010F00083E8070050460A9900F009FD8DE80700D3
:10110000A0F500501F3800900398002D0ADD42F230
:101110001F014A460844002303A90390684600F0D3
:1011200072FF09E0A0F500504A461F38002303A9CA
:101130000390684600F07CFF8DE807000004000C77
:1011400003D04FF0FF30410800E01046B8F1000F27
:1011500003D00022009215461EE0751E05D4FFF74D
:1011600022FF303262556D1EF9D5B3460122084385
:1011700002D000227F1C04E02078302801D1002218
:101180007F1E002A099784D01DE0112D07DAFFF792
:101190000AFF303262556D1C50EA0102F5D1084356
:1011A00002D00098C8B10EE00021681E05E0235C63
:1011B000625C63542254401E491C8142F7DBAB46FB
:1011C000A81B401E0990002004F80B000B98099AF8
:1011D000C0F80880C0E9002B7AE711264FF000081C
:1011E00057E72DE9F04F88460446D21D22F007014B
:1011F00091B0D1E90001CDE90A0108F0F4FC024602
:101200000B98C00F01D02D2007E02068810701D581
:101210002B2002E0202101EAC000032A099001D01E
:10122000072A05DB03464146204600F01DFB0BE183
:101230002078800601D5E06900E00620B8F1650F4E
:10124000814606D0B8F1660F18D0B8F1670F70D19B
:1012500031E00020B9F1110F009001DB112301E012
:1012600009F101030AAA01A90CA8FFF7E2FEDDE9D2
:101270000C70002609F10105834647E001204B462A
:1012800000904FF000470AAA01A90CA8FFF7D1FE71
:10129000DDE90DB00C995D46002610B909F1010099
:1012A0000D18B9EB050003D4C0F1FF3609F10105B3
:1012B000A5EB09002BE0B9F1010F01DA4FF00109AC
:1012C0000020B9F1110F0090484601DD112300E024
:1012D00003460AAA01A90CA8FFF7ABFEDDE90C70D2
:1012E0004D4600268346207800070AD4AB4500DA35
:1012F0005D4601A8012D04DD411911F8011C3029BA
:1013000007D04F4502DA17F1040F04DA01208246B4
:101310000FE06D1EEEE7002F02DCED1B3E4403E004
:10132000781CA84200DD7D1CB81B00F1010A4FF0BB
:1013300000472078000703D4AA4501DB4FF0FF3AAD
:101340000021B7F1004F0DF143088DF8431024D070
:1013500002202B23002F01DA7F422D230A21021EB7
:10136000A0F1010000DC5FB197FBF1FC97FBF1F20B
:1013700001FB1C7C17460CF1300C08F801CDEEE7A0
:10138000A8F1010003702188090501D5452100E07D
:101390006521A0F1010800F8011C09980FA9A1EB33
:1013A0000807FF1D00B10120411901EBEA70A16996
:1013B0003844081A401EA0612078C00602D4204696
:1013C000FFF7B7FB099828B1D4E901219047206ABB
:1013D000401C20622078C00622D52046FFF7A9FBDA
:1013E0001EE0002E04DBB34502DD01A8805D00E0B5
:1013F0003020D4E901219047206A401C2062761CED
:10140000AAF101005FEA000A0AD100F021FAC068DF
:101410000168405CD4E901219047206A401C2062A9
:10142000281EA5F10105DCDC07E0D4E9012118F84C
:10143000010B9047206A401C2062381EA7F101076B
:10144000F3DC2046FFF78BFB032011B041E60000E0
:101450002DE9F04F04460D46D21D22F0070089B059
:10146000D0E900974846394608F0BDFB0246F80F20
:1014700001D02D2307E02068810701D52B2302E04E
:10148000202101EAC0038DF820300BB1012000E0DB
:101490000020032A824601D0072A04DB2946204681
:1014A00000F0E2F93FE12078800601D40D2500E04C
:1014B000E569C7F30A560D2D49DA00214FEA175B9B
:1014C00008464FF00000002F00F4400007DA00EB60
:1014D00080004FF4400100EBD07001EA60008115FC
:1014E000012901DD4FF0FF3100224FEA850CBCF1EC
:1014F000180F06D31346ACF118004FF08052C240CB
:1015000003E04FF4801323FA0CF30CF10C0CBCF144
:10151000200F04D3ACF1200C09FA0CF001E007FA1B
:101520000CF000294FF0004801DD18B90FE00ED192
:1015300040450CD319EB02095F4121B9404502D166
:101540009F4329EA0209BBEB175F00D0761C208875
:10155000000502D57B48784402E07A48784419387F
:1015600008AA302302F80A30037C0AF10101002E98
:101570000AF1020A53546A4602DC4FF0300101E0DE
:101580004FF031014FF001088DF8001002D0A6F2A3
:10159000FF3603E059EA470100D06B4E002D02DC14
:1015A0002178090704D54FF002082E218DF801108B
:1015B000C44600210BE0C7F303433F01C35C491C51
:1015C0006D1E02F80830052908F1010801DA002D26
:1015D000F1DC00210CE000EB1973491C1B786D1E37
:1015E000082902F808304FEA091908F1010801DA60
:1015F000002DF0DC21688B0602D516E0A8F1010869
:10160000E04505DD02EB080313F8013C302BF5D073
:10161000B8F1000F09DD02EB080313F8013C2E2B93
:1016200003D1090701D4A8F10108002D05DD3E21F1
:1016300002F808106D1E08F10108407C002E02F827
:10164000080008F1010804DA2D20764202F80800AB
:1016500002E02B2002F808000A214FF47A7086423B
:1016600008F101080BDB96FBF0F3303302F8083089
:1016700096FBF0F308F1010800FB136601E0642E0D
:101680000CDB642096FBF0F3303302F8083096FB55
:10169000F0F308F1010800FB136601E00A2E06DBF7
:1016A00096FBF1F0303002F8080008F1010896FBD3
:1016B000F1F001FB1060303002F80800A16908F178
:1016C000010808EB050202EB0A00081AA061207865
:1016D000C00602D42046FFF72CFA216A08AE01EBBF
:1016E0000A00206204E0D4E9012116F8010B9047BA
:1016F000BAF1010AF7D22078C00602D52046FFF7DA
:1017000018FA6E4609E016F8010B3E280FD0D4E90E
:1017100001219047206A401C2062B8F10108F2D2F2
:101720002046FFF71CFA09B00320BDE8F08F206ABD
:101730002844206203E0D4E90121302090476D1E47
:10174000EBD3F8E70DAF000002FCFFFF10B54369D3
:1017500013B1AFF3008001E0FFF724FA012010BDC0
:10176000127800F124010A7000224A700122EDE78C
:1017700011684FF0FF32E9E710B5436913B1AFF3D9
:10178000008001E0FFF7CAFA012010BD128800F1C5
:10179000240182840022C2840122EDE711684FF007
:1017A000FF32E9E770B516460C46054600F048F8EA
:1017B000036893F80101012806D0FF2C0FD8185DAB
:1017C00068B101202C7070BDD3F807013246214664
:1017D00003F2071303442846BDE8704018474FF052
:1017E000FF3070BD10B500F0FFF8BDE8104000F00C
:1017F000F6B870477546FFF7AFFBAE460500694681
:10180000534620F00700854618B020B5FEF7F6FDD8
:10181000BDE820404FF000064FF000074FF00008F1
:101820004FF0000B21F00701AC46ACE8C009ACE872
:10183000C009ACE8C009ACE8C0098D46704700009B
:1018400010B500F005F8001D10BD00BF8DA600000A
:10185000004870472064002010B5FFF70BF90068BE
:10186000BDE8104000F0EEB82DE9F0411F460446F7
:1018700003260168072A01F4006004DB08B116A5FD
:1018800005E016A503E008B115A500E015A521F0B7
:1018900010002060A069C01EA0610FB1401EA061B1
:1018A0002046FFF746F94FB1D4E901213846904769
:1018B000206A401C2062C01C206206E0206AFAE711
:1018C000D4E9012115F8010B9047761EF8D2204685
:1018D000FFF745F9BDE8F0814E414E006E616E00A4
:1018E000494E4600696E66002DE9F047814616466E
:1018F0008AB0354878440DC88DE80D0032487844E8
:10190000801C03AC0DC884E80D0041F69B300844F0
:10191000372190FBF1F290FBF1F5A5F1800501FB79
:1019200012041B3C02D56442012000E00020DFF8D5
:1019300098A080460027FA44AAF1BE0A0EE0E0070C
:101940000AD03246684607EB470101230AEB8101C2
:1019500000F06EFB8DE8070064107F1C002CEED1B8
:10196000194F7F44AE3F19E0E80715D007EB04108C
:101970000DF1180A90E80E008AE80E00C068F042E7
:1019800001D1981908903246012306A903A800F056
:101990004FFB03AB83E807006D10641C002DE3D1FF
:1019A0004FF0010332466946B8F1000F03A802D098
:1019B00000F029FB01E000F03BFBC9E90001C9F898
:1019C00008200AB0BDE8F08700AC000010B504465E
:1019D000AFF300802046BDE81040FEF79ABC002817
:1019E00001D000F029B8704710B5012805D00021BA
:1019F00003A000F02CF8012010BD09A1F8E70000B9
:101A000053494752544D454D3A204F7574206F66E7
:101A10002068656170206D656D6F7279000000004F
:101A20003A2048656170206D656D6F727920636F33
:101A3000727275707465640001491820ABBEFEE7D0
:101A40002600020010B50C3008F01AFB10BD70B56E
:101A500005460C460A2000E06D1C00F051F835B137
:101A600028780028F8D102E0641C00F049F814B18D
:101A700020780028F8D1BDE870400A2000F040B876
:101A80004FF0013C50F8042B51F8043B9A4221D10D
:101A9000A2EB0C03934313EACC1317D150F8042B99
:101AA00051F8043B9A4215D1A2EB0C03934313EA7D
:101AB000CC130BD150F8042B51F8043B9A4209D1B6
:101AC000A2EB0C03934313EACC13DBD04FF00000DE
:101AD000704700BFD01A01BAB1FA81F101F01801C4
:101AE00022FA01F0CB40C1F12001DBB2C0B2C01A32
:101AF0002CFA01F3D11A914311EAC311E6D17047D0
:101B000008B569468DF800000320ABBE08BD5FEA4A
:101B1000400C08BF91F0000F4FEA8C234FEAC1221E
:101B200043EA51514FEA1C5018BF00F5F0404FEA0C
:101B3000300018BF41F000415FEA6C5C00F0298082
:101B4000BCF1FF3F08BF40F080407047130C06BF58
:101B500012044FF0100C4FF0000C130E04BF1202D1
:101B60000CF1080C130F04BF12010CF1040C930FBD
:101B700004BF92000CF1020CD30F04BF52000CF111
:101B8000010C11464FF00002A0F11F00A0EB0C0069
:101B9000704711F0004F08BF704731F000413FF42B
:101BA000D5AF0B0C06BF09044FF0100C4FF0000C22
:101BB0000B0E04BF09020CF1080C0B0F04BF090146
:101BC0000CF1040C8B0F04BF89000CF1020CCB0F3D
:101BD00004BF49000CF1010CCCF12003A0EB0C0078
:101BE00022FA03F302FA0CF241EA030100F10100C8
:101BF000704720F07F4C80EA030023F07F47ACEB76
:101C0000070303F57C5300F0004003F1FF032DE9C7
:101C100080494FEA154B09B44FEA144325EA0B4EAD
:101C200024EA03480FF2042606EB132749083E78FE
:101C30005FEA320203FB0667C7F5000707FB06F6FB
:101C40004FEA54374FEAD64606F1020607FB066C08
:101C5000CCF1005C4FEA1C472CEA074C07FB06F46A
:101C60000CFB06F504EB15464FEA961634BF002030
:101C70004FF000404FEAD13706FB07FC4FEA1C4CFF
:101C80000CFB0BF7D21B03FB0CF761EB07010CFB02
:101C90000EF7B0EB074072EB17420CFB08F734BFAE
:101CA000A2EB0742B2EB074261EB17414FEA0C444B
:101CB0004FEA910706FB07FC4FEA1C4C0CFB0BF7A5
:101CC000B0EBC74072EB573203FB0CF734BFA2EB0B
:101CD000C742B2EBC74261EB57310CFB0EF7B0EBDA
:101CE000C70072EB57720CFB08F734BFA2EBC702B8
:101CF000B2EBC70261EB5771039F4FEA816141EA82
:101D0000921104EBCC044FEAD1374FEA826206FB12
:101D100007FC42EA90124FEA80604FEA1C4C0CFB31
:101D20000BF7D21B03FB0CF761EB07010CFB0EF763
:101D3000B0EB074072EB17420CFB08F734BFA2EB85
:101D40000742B2EB074261EB17414FEA8C554FEA6D
:101D5000910704EB9C2406FB07FC4FEA1C4C0CFB90
:101D60000BF7B0EBC74072EB573203FB0CF734BFF5
:101D7000A2EBC742B2EBC74261EB57310CFB0EF747
:101D8000B0EBC70072EB57720CFB08F734BFA2EB45
:101D9000C702B2EBC70261EB577115EB4C254FEA56
:101DA000816141EA92114FEA82624FEAD13742EAF9
:101DB000901206FB07FC44F100044FEA80604FEAF2
:101DC0001C4C0CFB0BF7D21B03FB0CF761EB070160
:101DD0000CFB0EF7B0EB074072EB17420CFB08F759
:101DE00034BFA2EB0742B2EB074261EB174115EBA0
:101DF0001C154FEA813141EA92414FEA823242EAB0
:101E000090424FEA80304FEA0C7644F1000448EAF1
:101E100003434EEA0B484FF0000EB2EB080C71EB97
:101E2000030724BF624639464EEB0E0E4FF0000BFF
:101E30000018524149414BEB0B0BB2EB080C71EB14
:101E400003077BF1000B24BF624639464EEB0E0EB2
:101E50004FF0000B0018524149414BEB0B0BB2EB1A
:101E6000080C71EB03077BF1000B24BF6246394677
:101E70004EEB0E0E51EA020718BF46F0010616EBB4
:101E80000E7655F1000254F1000103D5BDE8890139
:101E9000BDE80088BDE88901BDE80048B619524197
:101EA00041EB0101A3F10103704780807F7E7D7CBF
:101EB0007B7A7978777676757473727171706F6EDC
:101EC0006E6D6C6C6B6A6A69686867666665646487
:101ED000636362616160605F5F5E5E5D5D5C5C5B11
:101EE0005B5A5A5959585857575656555555545480
:101EF000535352525251515050504F4F4F4E4E4DDE
:101F00004D4D4C4C4C4B4B4B4A4A4A494949484829
:101F10004847474747464646454545444444444369
:101F200043434342424242414141002B9C4630D40C
:101F300077002BD01CB54FEA370703B44FF01000E1
:101F40004FF01001BAF1000F06D0BCF1000FDCBF5A
:101F500040F0080040F008014FF000000FBCBDE861
:101F600010400BF1010BBBF1010F08BF5FEA17072F
:101F700022BF12F1010211F101014FF0004143F1C2
:101F8000000300F0004043EA00007047F9D357080F
:101F9000D0E746EA064613F1400F4FEA16461FDD2A
:101FA00013F1200FDFBF16430A46002120335B42A6
:101FB000BED0C3F1200746EA064602FA07F74FEA09
:101FC000164646EA0706C3F1200722FA03F201FA91
:101FD00007F721FA03F14FF0000342EA0702A7E7EF
:101FE00046EA020646EA06464FEA164646EA010671
:101FF000BCBF46EA0646360C4FF000034FF0000225
:102000004FF0000194E72DE9804C9A46934670B456
:1020100091E8380007C831EA400C48BF34EA430C65
:1020200003D5FFF7E6FDFFF780FFF0BCBDE8008CAD
:102030002DE9804C9A46934670B491E8380007C861
:1020400010F0804F08BF13F0804F03D100F005F867
:10205000FFF76BFFF0BCBDE8008C20F07F4780EA03
:10206000030023F07F4C07EB0C03A3F57C5300F037
:102070000040A3F1FE0392F0000F00F0B38095F052
:10208000000F00F077802DE901494FEA11404FEA37
:10209000144621EA004800FB06FC24EA064708FB38
:1020A00006F607FB08F800FB07F718EB06484CEBB1
:1020B000164C4FEA124B18EB07484FEA15464CEB0B
:1020C000174022EA0B4E0BFB06FC25EA06470EFBE7
:1020D00006F607FB0EFE0BFB07F71EEB064E4CEB5E
:1020E000164C4FF000061EEB074E4CEB174B18EB4F
:1020F0000B0840F1000018EB0E0B58EB000840F104
:1021000000008F1A4FF000013CBFC943661B14BF8B
:10211000B5EB040C00213CBFC943F61B4FEA174442
:102120004EEA8E0E27EA04454FEA1C4704FB07627D
:102130002CEA074C05FB07F70CFB05F604FB0CFC2F
:1021400016EB074642EB174216EB0C4642EB1C42DD
:102150001BEB060658EB0202414146EA9E0601D5FA
:10216000BDE80189B619524141EB0101A3F1010318
:10217000BDE801894FEA14454FEA114724EA0546B4
:1021800021EA074C05FB07F406FB07F70CFB06F1F9
:1021900005FB0CFC11EB074144EB17444FEA1247D7
:1021A00011EB0C4144EB1C4422EA074C05FB07F2FF
:1021B00006FB07F70CFB06F605FB0CFC16EB0746C7
:1021C00042EB174216EB0C4642EB1C456A1854F1E1
:1021D000000148BF7047B619524141EB0101A3F11C
:1021E0000103704795F0000F37D04FEA11424FEAD4
:1021F000144721EA024624EA074C02FB07F106FBDA
:1022000007F70CFB06F402FB0CFC14EB074441EB54
:1022100017414FEA154714EB0C4441EB1C4125EAEA
:10222000074C02FB07F506FB07F70CFB06F602FB63
:102230000CFC16EB074645EB174516EB0C4645EB39
:102240001C42121951F1000148BF7047B6195241A2
:1022500041EB0101A3F1010370474FEA14454FEA36
:10226000114724EA054621EA074C05FB07F106FB66
:1022700007F70CFB06F24FF0000605FB0CFC12EB17
:10228000074241EB174112EB0C4251EB1C4148BF96
:102290007047921841EB0101A3F101037047FEE77B
:1022A000014801F006B90000680F0020014801F064
:1022B00000B90000680F002010B590F842200621F8
:1022C0008AB0012A1CD0828E038F520501EB435144
:1022D00000230E2406930994140C92B2CDE9004217
:1022E00001230A0C079389B2CDE902210168114C40
:1022F000114A0968A1420BD111784C1C14700AE0F4
:10230000426B042303EBC202836B01EBC301DFE7E3
:1023100051784C1C5470059101F00101049108930F
:102320000068694600F09CFF10B100200AB010BDA3
:102330000120FBE700640040C40E00202DE9FC41B1
:10234000264E88460746A6F140053FE06B46234AE5
:102350004146384601F01DF821480024837833E0D7
:10236000B068042804D0316804D14FF0010203E0C2
:102370007168F9E74FF0000255F82400D0F800C06A
:10238000BC4520D190F842C094451CD1D0F834C04F
:10239000826B0CEA020C0A40944514D1D0F8432019
:1023A000A2B1C16355F824003269694680F8402023
:1023B00055F824002C30FEF792FA55F82400D0F896
:1023C0004310884702E0641C9C42C9D3414638460A
:1023D00000F0CEFF0028B9D1BDE8FC81EC5A002006
:1023E000C40E00202DE9FC41040005D0206818B17E
:1023F000454EB07818B108E00020BDE8FC8143A349
:1024000044A245A146A005F03BFFB278102A06D3AE
:102410003EA34DA24DA14F4805F032FFF8E7002042
:102420004D4F1BE057F82010A5684B6BAB4214D101
:1024300091F84230657CAB420FD10968236899421C
:102440000BD104F1080531A0CDE90050231D3EA2B7
:102450003EA1424805F014FFF5E7401C9042E1D34D
:102460004B20FEF722F8051EC7D04B21FEF7B6FA27
:10247000207C85F84100617C85F84210012806D057
:102480004FF00000E860606804D1A86003E04FF0FE
:102490000400F7E768604FF00008C5F810804FF0BF
:1024A00008006861206828606068E861A068686367
:1024B000E068A86320B9012917D040F2FF70A86333
:1024C0006069C5F84300A069C5F847002846FFF7D2
:1024D000F3FE68B1B07847F82050401CB070206817
:1024E00000F03EF840B1284687E76FF06040E6E72D
:1024F0002846FEF715F87FE7B178491EC9B2B170DA
:1025000047F82180F4E70000C40E00201B5B306D0B
:1025100000000000493A00001B5B313B33326D0084
:102520002020257325735B6273705F63616E5D208D
:1025300043414E205365727669636520496E697424
:102540000D0A257300000000453A00001B5B313B7B
:1025500033316D002CC60008AC5A00209CC5000821
:1025600070B5144E0546A6F108040021E07807E096
:1025700056F82120AA4201D1012070BD491CC9B2E0
:102580008142F5D3022803D2284601F075F908B13B
:10259000002070BD1221284600F0F2FD18B1284637
:1025A00001F096F9F4E7E07846F82050401CE0701E
:1025B000E2E70000CC0E002010B5082902D809B1CE
:1025C000416110BD03A305A205A1074805F058FE0F
:1025D000F8E700001B5B306D00000000453A00008A
:1025E0001B5B313B33316D00E8C50008002805D086
:1025F000C16190F84120012A01D04160704781609B
:102600007047000070B504462DED028B82B0B0EE2D
:10261000408A01F093FC0646194D12E001F08EFC51
:10262000801B00EE100AB8EE400AB4EEC80AF1EEC4
:1026300010FA06DD13A0009014A215A116486B68CD
:1026400012E0206800F01FFF0028E7D004F120030B
:1026500020681A1D211D00F0A5FD78B109A0009089
:102660000AA20BA10DA06B6805F00AFE6868401C69
:102670006860002002B0BDEC028B70BD0120F9E75C
:10268000C40E00201B5B306D00000000573A0000B4
:102690001B5B313B33336D004CC500082020257394
:1026A00025735B6273705F63616E5D2043414E20F2
:1026B000627573204255532120636E743A25640D70
:1026C0000A257300B5EEC00AF1EE10FA01DAB1EE98
:1026D000400A70472DE9F041DFED210AB0EE601AA3
:1026E000B0EE600AC8B30268BAB34568ADB3047A05
:1026F0009CB3002021E000BF52F820306BB3197A60
:1027000059B3411C0E4604E052F82170BB4225D05B
:10271000491CC9B28C42F7D805EBC001D1ED001AB3
:10272000042101EBC000284401EEA11A90ED002A1B
:10273000F0B241EE820A02EE020A8442DCD821EEB7
:10274000000A00EEE00AFFF7BDFF10EE100A05498F
:10275000884203DD0120BDE8F081FFE70020FAE7B1
:1027600000000000BD37863570B50D4604000ED060
:10277000002D0CD0207B10B1204600F03DF904F173
:1027800024012846BDE870402C22FEF7EDB870BD4C
:1027900070B504000D4616D0ADB1AFF20B00206548
:1027A0001F4860651F48A0651F48E0651F482066F8
:1027B0001F4860661F48A0661F48E0661F482067E4
:1027C000207B38BB01E0002070BD0846FFF782FF88
:1027D0000028F9D01422294604F11000FEF7C4F8AD
:1027E0002868206068686060E868A0602C2104F1B7
:1027F0002400FEF715F9287A84F82500B7EE000AC0
:1028000084ED120A01202073287C0028204602D083
:1028100000F0AEF801E000F0EFF8012070BD00001C
:1028200071290008A52900089B28000873280008C2
:10283000852800080D2B000841280008692700089A
:1028400070B5050014D0287B002811D0002406E0C4
:10285000286850F8240006F07DFC641CE4B295F86A
:102860002500A042F4D82846BDE8704000F0C4B866
:1028700070BD28B1017B19B1D0ED0B0A00F00DB885
:1028800000207047F0EE400A28B1017B19B190EDAD
:102890000A0A00F002B80020704770B504002DED60
:1028A000068BB7EE00AAF0EE608AB0EE409AB0EE6A
:1028B0004A8A04D0207B10B10025042625E00020A0
:1028C000BDEC068B70BD606800EBC50191ED000AA0
:1028D00006EBC501084420EE090AD0ED000A00EE1F
:1028E000A80AFFF7EFFE2068F0EE400A50F8250036
:1028F00090ED081A80EE810AB4EEC80AF1EE10FAE3
:1029000001DDB0EE408A6D1CEDB294F82500A842BE
:10291000D9D8CAEE089A002516E0606800EBC50118
:1029200091ED000A06EBC501084420EE090AD0ED3E
:10293000000A206800EEA80A50F8250020EE290AB7
:1029400006F02EFC6D1CEDB294F82500A842E4D8E8
:1029500029EE290A84ED0A9AC4ED0B8A84ED0C0A4B
:1029600028EEA90A012084ED0D0AC4ED129AA7E70A
:1029700070B5050014D0287B002811D0002406E093
:10298000286850F8240006F05DFC641CE4B295F859
:102990002500A042F4D82846BDE8704000F02CB8CD
:1029A00070BD000070B5040023D0207B002820D02B
:1029B000002506E0206850F8250006F055FC6D1C47
:1029C000EDB294F82500A842F4D86CB19FED090A45
:1029D00084ED0A0A84ED0B0A84ED0C0A84ED0D0ADD
:1029E000B7EE000A84ED120A2046BDE8704000F000
:1029F00003B870BD0000000070B504002DED0A8B17
:102A00008AB04FF001069FED3FCAB0EE4C8AB0EE9F
:102A1000489AF0EE488AF0EE48AAB0EE48AAF0EEE6
:102A2000489AB0EE48BA68D0207B002865D00025CF
:102A300028E02068694650F8250006F0A9FA9DF8BC
:102A4000000000B9002660689DED031A00EBC50187
:102A5000D1ED000A042101EBC501084440EE81AA32
:102A600090ED000A00EEA09A6D1C00EE01AA9DED0B
:102A7000061A00EE808A40EE008A40EE819A00EE4F
:102A800001BAEDB294F82500A842D2D869EE28BA6E
:102A900084ED0ECA84ED0FCA84ED10CA48EE48BA20
:102AA00084ED11CAB0EE6B0AFFF70CFE10EE100AAF
:102AB000154988421FDD2AEEA80A0AEE480AC0EE30
:102AC0002B0A2AEE090A0AEEC80AC4ED0E0AC0EE65
:102AD0002B0A29EEA80A0BEE480AC4ED0F0AC0EE35
:102AE0002B0A2BEE090A09EEC80AC4ED100AC0EE43
:102AF0002B0AC4ED110A84F824600AB0BDEC0A8BDD
:102B000070BD000000000000BD37863570B50400C0
:102B10002DED028BB0EE408A22D0207B00281FD002
:102B2000B5EEC08AF1EE10FA01D29FED0F8A0025B2
:102B300008E02068B0EE480A50F8250006F01CFCBA
:102B40006D1CEDB294F82500A842F2D8E06C401C50
:102B5000E0642046BDEC028BBDE87040FFF74CBF3F
:102B6000BDEC028B70BD000000000000014800F0C9
:102B700041BF0000F810002001681823CAB2103AC3
:102B8000B2FBF3F2054B6FF30901032A9B5CC365AB
:102B900000D9091D81650846704700003CBF000848
:102BA00010B5014600208B698A6A4FF0C07453B19A
:102BB000B3F5005F15D072B1012A0CD0022A0AD0F9
:102BC000032A09D104E01AB1012A06D0022A03D14E
:102BD000C96AC90100D5012010BDC96AA142FAD055
:102BE00010BD002AF7D0012AF2D0022AF3D0032A1E
:102BF000F3D010BD30B50468256825F48025256024
:102C0000046863608368402B036803D099600068A0
:102C1000C26030BD9A600068C16030BD704701205D
:102C200001F076B8002800D0006A70470B460028F3
:102C300007D0002B05D000F11C011C221846FDF71F
:102C400093BE7047002800D0407F704770B586B0B3
:102C5000040039D0C1B3AFF20B00C4F8C4002D4852
:102C6000C4F8C8002C48C4F8CC002C48C4F8D000E4
:102C70002B48C4F8D4002B48C4F8D8002A48C4F81C
:102C8000DC002A48C4F8E000207910B1012006B029
:102C900070BD04F1080014220546FDF765FE01260B
:102CA0004DB1686808B93C216960687C70B1102832
:102CB00001D9102169743DB1286828B168683C28A1
:102CC00006D028B1042803D00020E0E76E74F2E7B4
:102CD0001C2104F11C00FDF7A3FE14216846FDF73A
:102CE0009FFEA06800908DF80460207E00B1012056
:102CF0008DF80500E06802900494684605F008FC31
:102D000020600028C3D02671207E2077204600F066
:102D10000FF8BBE7A12D0008C12D0008012E000807
:102D2000312D0008252C0008452C00082D2C00080A
:102D300010B5040017D02068002814D0002105F039
:102D400049FC002020626062A06260779FED060A65
:102D5000204684ED0D0A84ED0B0A84ED0C0ABDE8D3
:102D6000104000F003B810BD0000000010B50400D2
:102D700012D0402104F13800FDF752FE402104F149
:102D80007800FDF74DFE002044F8B80F9FED030AD0
:102D900084ED010A2072607210BD00000000000086
:102DA00010B5040009D0207938B1206805F01BFC6B
:102DB000002801D00120207710BD002010BD0000A8
:102DC00010B5040017D02079A8B1206805F02BFCBD
:102DD00000280FD000202077606260779FED070AFF
:102DE000204684ED0D0A84ED0B0A84ED0C0AFFF7F2
:102DF000BDFF012010BD002010BD0000000000003C
:102E000070B504002DED028BF0EE408A7BD0207966
:102E1000002878D0207F00269FED498AA0B1206845
:102E200005F00CFB05462946206805F00FFB217CC8
:102E300001B14042C4E90905216A00280144216228
:102E400009DD4FF0010109E06662667784ED0D8AC5
:102E500084ED0B8A71E003DA4FF00201617700E044
:102E60006677F5EEC08AF1EE10FA52DD00EE100A38
:102E7000F5EEC08AB8EEC00AC0EE280AF1EE10FAEC
:102E8000C4ED0D0A31D9637E94F8C12094F8C010C6
:102E90009A4210D304EB8102D4F8B850966BAE1B63
:102EA000C4F8B86094ED2F0AD2ED1E0A30EE600A25
:102EB00084ED2F0A02E0521C84F8C12004EB810249
:102EC000491C9063C2ED1E8AD4F8B8200244C4F8AD
:102ED000B82094ED2F0AC8B2984230EE280A84ED4B
:102EE0002F0A00D3002084F8C000D4ED2F0AF5EE9D
:102EF000C00AF1EE10FA07DD94ED2E0AB8EEC01A02
:102F000081EE200A02E015E094ED0D0A84ED0B0A33
:102F100003E084ED0D8A84ED0B8A94ED050AB5EE8D
:102F2000C00AF1EE10FA08DDD4ED0B0A80EE801A2B
:102F300084ED0C1ABDEC028B70BD84ED0C8AF9E7B0
:102F40000000000072B6FEE7C188006800F0E4BF30
:102F500070B5040007D0206828B1E08818B1114D81
:102F60002878202801D3002070BD1020FDF79DFA9D
:102F70000028F9D00021016041608160C1602168B2
:102F80000160E188C1802179017161794171E16855
:102F9000C160A1688160044A297842F82100491C77
:102FA000297070BDD40E0020085B0020C188006825
:102FB000002200F0BEBFC1880068012200F0B9BF46
:102FC000C188006800F0ADBF10B5040007D094F8C8
:102FD000400020B1204600F0A8F8E06C10BD0020B1
:102FE00010BD70B50D4604000CD0002D0AD094F829
:102FF000400010B1204600F098F84C3494E80F00DF
:1030000085E80F0070BD00002DE9FF47040046D0A1
:10301000F1B3AFF20B00E0653448206634486066D7
:103020003448A0663448E06694F8400018B10120A6
:1030300004B0BDE8F087D1E90030C4E9113014F1E3
:1030400044004FF000062AD013B3017901B31029D0
:1030500025D84079012800D0D0B90020012708E008
:1030600013EBC0021BD0156895B1928882B1401C49
:10307000C0B28142F4D840212046FDF7D1FCE6647D
:1030800026656665A66594F8480084F8540000E05B
:1030900005E000254FF004084FF003091CE0002074
:1030A000C6E70096019602960396606C50F83510BC
:1030B000009108EBC501405AADF806008DF8046098
:1030C0008DF8059068460394FFF742FF44F8250009
:1030D0000028ADD06D1CEDB294F84800A842E0D8AD
:1030E00084F84070204600F020F8A0E72B3100085B
:1030F000FD300008C92F0008E32F000870B50D4609
:10310000040006D094F8400018B194F84800A84292
:1031100001D8002070BD204600F007F80121E06CC6
:10312000A9400840F6D0012070BD2DE9F04104000F
:1031300024D094F84000002820D00020E064054608
:103140000127206513E054F82500FFF7FDFE07FA7C
:1031500005F63CB194F84910814203D1E06C30434C
:10316000E06402E0206D304320656D1CEDB294F800
:103170004800A842E7D8A06D401CA065BDE8F081DA
:1031800090F82020012A07D0022A05D0416A41F494
:103190008021416201207047006842690A43426110
:1031A00000207047F0B590F820500468A468012D05
:1031B00005D0022D03D0416A41F480214DE014F086
:1031C000406F01D1E50045D5C4F301640125A54058
:1031D0001D608D684FF4C0739DB1CE6835434E6855
:1031E00045EAC605066803EB0417F5514FF4C275AE
:1031F000076805EB04150E697E51097D012905D08C
:1032000009E00E88CD6845EA4655EBE701684E595E
:1032100046F480764E511179D2F805504FF4C676B7
:1032200041EA0521056806EB0416A9511178D2F888
:1032300001204FF4C47541EA0221026805EB041530
:103240005151006803EB0411425842F00102425010
:103250000020F0BD416A41F4001141620120F0BD3F
:1032600010B590F82020012A07D0022A05D0416A23
:1032700041F480214162012010BD3B48D0F800227A
:1032800042F00102C0F80022D0F8002222F47C5261
:10329000C0F80022D0F800224B6A42EA0322C0F8AC
:1032A00000220A7D02F01F0301229A40D0F81C324E
:1032B0009343C0F81C32CB69B3B9D0F80C329343B6
:1032C000C0F80C328C894B6864F31F434C6900EBE7
:1032D000C404C4F840320C890B6864F31F434C6982
:1032E00000EBC404C4F84432CB69012B16D1D0F8EA
:1032F0000C321343C0F80C320C884B6864F31F4344
:103300004C6900EBC404C4F840320C89CB6864F308
:103310001F434C6900EBC404C4F844328B69002B92
:10332000D0F804320ED01343C0F804320B69002BDE
:10333000D0F8143208D01343C0F81432096A0129B6
:1033400004D008E09343EFE79343F5E7D0F81C126D
:103350001143C0F81C12D0F8001221F00101C0F88E
:103360000012002010BD0000006400407047000003
:103370000246002092F82030012B01D0022B05D10B
:10338000106821B1D0F8100000F003007047C06849
:10339000FAE770B590F82040012C05D0022C03D03C
:1033A000416A41F4802128E0046809B32469A40734
:1033B00020D04FF4D874056804EB01142D5915F092
:1033C0000405956005682D591AD0ED08556005680B
:1033D0002C5904F00204D4604FF4DA74056804EB4D
:1033E00001142E5906F00F06082E0CD308250DE007
:1033F000E468DCE7416A41F400114162012070BDDC
:103400006D0D1560E3E72D5905F00F051561056891
:103410002D59C5F30725956105682C59240C546175
:103420004FF4DC72046802EB0112A4581C700468AB
:10343000A458240A5C700468A458240C9C70046886
:10344000A258120EDA704FF4DE72046802EB011219
:10345000A4581C710468A458240A5C710468A45818
:10346000240C9C710468A258120EDA71006829B10C
:10347000016941F020010161002070BDC16841F087
:103480002001C160F8E70246002092F820100129CF
:1034900001D002290CD111688A68520100D501209F
:1034A0008A68120100D5401C8968C90000D5401CFB
:1034B00070472DE9F05F0546006800244669D0F8A2
:1034C00004908768D0F80CB0D0F810A0D0F818801D
:1034D000F10748D0F90714D001218160B80703D55E
:1034E000284600F026FA0CE0780702D54FF4006475
:1034F00007E0380702D54FF4805402E0284600F078
:1035000017FAF80516D529684FF480708860B80559
:1035100003D5284600F00FFA0CE0780502D544F4F4
:10352000005407E0380502D544F4804402E0284600
:1035300000F000FAF80316D529684FF4803088604F
:10354000B80303D5284600F0F8F90CE0780302D55B
:1035500044F4004407E0380302D544F4803402E028
:10356000284600F0E9F9300707D55FEACB6004D5BB
:103570002968102044F40074C86070074FF00807F1
:1035800007D55FEA0B7004D52868C760284600F0AD
:1035900069F9B00706D52868C068800702D02846B8
:1035A00000F061F9700607D55FEACA6004D52968A2
:1035B000102044F480640861B00607D55FEA0A7001
:1035C00004D528680761284600F050F9F00606D5B2
:1035D00028680069800702D0284600F048F9B00347
:1035E00008D55FEAC96005D52968102048602846DB
:1035F00000F040F9F00307D55FEA097004D52868A8
:103600004760284600F09AF9300446D55FEA4970D1
:1036100040D5F00504D55FEAC87001D044F001043C
:10362000B00504D55FEA887001D544F00204700546
:1036300004D55FEA487001D544F00404300529D56B
:1036400018F0700F26D008F07000402815D006DC66
:10365000102809D020280AD0302816D10AE0502896
:103660000ED0602811D10EE044F008040DE044F0C3
:1036700010040AE044F0200407E044F0400404E0B1
:1036800044F0800401E044F480742868816921F0EA
:1036900070018161296804204860002C05D0686AA7
:1036A000204368622846FFF761FEBDE8F09F70B5D1
:1036B000040003D094F8200010B104E0012070BD94
:1036C000204600F081F82068016841F001010160A6
:1036D00000F034FC0546052604E000F02FFC401BFA
:1036E0000A2811D820684068C007F6D02068016811
:1036F00021F00201016000F021FC05460BE000F022
:103700001DFC401B0A2806D9606A40F40030606244
:1037100084F82060D2E7206840688007EFD4207EDC
:103720000128206801683DD021F080010160607EA1
:1037300001282068016838D021F040010160A07E96
:1037400001282068016833D021F020010160E07E6B
:103750000128206801682ED041F010010160207F0F
:1037600001282068016829D021F008010160607FEC
:1037700001282068016824D021F004010160D4E907
:1037800002010843D4E90412114308436168491E49
:1037900008432168C86100206062012084F820008D
:1037A000002070BD41F08001C0E741F04001C5E755
:1037B00041F02001CAE721F01001CFE741F00801F4
:1037C000D4E741F00401D9E710B586B004461421CE
:1037D0006846FDF725F920492068884239D11F48FD
:1037E0000021026842F080620260026802F080629A
:1037F0000592026842F000720260006800F00070FA
:10380000059016481038026842F002020260006813
:1038100000F0020005904FF4405000900220CDE9E6
:103820000101032003900920049069460C4800F030
:103830007BFA00220521402000F01EFC402000F011
:103840000DFC00220521412000F016FC412000F073
:1038500005FC06B010BD0000006800404038024082
:103860000004024070470021FEF768BD7047012147
:10387000FEF764BD7047000070B5044690F8200064
:10388000012804D0606A40F40020606218E0022041
:1038900084F820002068016821F00101016000F037
:1038A0004DFB05460EE000BF00F048FB401B0A2818
:1038B00008D9606A40F400306062052084F8200076
:1038C000012070BD20684068C007EDD1606270BD06
:1038D00070B5044690F82000022804D0606A40F4D5
:1038E0008010606214E02068016841F0010101600D
:1038F00000F024FB05460DE000F020FB401B0A28E9
:1039000008D9606A40F400306062052084F8200025
:10391000012070BD20684068C007EDD020680168B4
:1039200021F002010160012084F82000002070BD18
:1039300070477047704770477047704770472DE970
:10394000F0410446876D00F0F9FA064694F8350018
:103950000025022806D08020606584F834500120BC
:10396000BDE8F0812068016821F01601016020683F
:10397000416921F080014161206C08B9A06C20B13F
:103980002068016821F0080101602068016821F0C9
:10399000010101600CE000F0D1FA801B052807D975
:1039A00020206065032084F8350084F83450D7E780
:1039B00020680068C007EED194F85C103F20884072
:1039C000B860012084F8350084F834500020C7E73F
:1039D00090F83510022903D08021416501207047FD
:1039E000052180F835100068016821F001010160AF
:1039F000002070472DE9F84304464FF00009CDF848
:103A0000009063484FF41651A56D0068B0FBF1F7C4
:103A10002E6894F85C10082000FA01F131420FD0B2
:103A200021680A6852070BD50A6822F004020A606E
:103A300094F85C108840A860606D40F001006065FB
:103A400094F85C104FF0010808FA01F0304208D0F9
:103A500021684969090604D5A860606D40F002003C
:103A6000606594F85C1004208840304208D02168DA
:103A70000968890704D5A860606D40F0040060659E
:103A800094F85C1010208840304218D021680968F2
:103A9000090714D5A86020680168490304D50068A7
:103AA000000308D5A16C07E00168C90503D40168CB
:103AB00021F008010160216C09B12046884794F883
:103AC0005C1020208840304231D021680968C90646
:103AD0002DD5A86094F8350005282068016806D027
:103AE000490347D5006800031DD4616C1CE021F038
:103AF000160101602068416921F080014161206C5C
:103B000008B9A06C20B12068016821F008010160AB
:103B100094F85C103F208840A86084F8358084F8D1
:103B20003490216D1FE0E16B09B120468847606D3C
:103B300000282BD0606DC00714D0052084F8350014
:103B40002068016821F0010101600098401C00908C
:103B5000B84203D820680068C007F6D184F83580E1
:103B600084F83490E16C002910D001B02046BDE803
:103B7000F04308470168C905D5D4016821F0100158
:103B8000016084F8358084F83490CCE7BDE8F88390
:103B9000140000202DE9F041044600F0CFF906465C
:103BA0005CB1022084F83500002584F83450206888
:103BB000016821F0010101600DE00120BDE8F08104
:103BC00000F0BCF9801B052805D920206065032082
:103BD00084F83500F2E720680068C007F0D1226859
:103BE000116820480140D4E901031843D4E90336A1
:103BF0003343184363691843A3691843E3691843BF
:103C0000236A18430843616A042903D1D4E90B13DA
:103C100019430843106020684069666A20F0070174
:103C200030460E43012704280CD1A06A0643E06AFF
:103C300040B12046FEF7B4FF20B14020606584F813
:103C40003570BAE7206846612046FEF795FF94F884
:103C50005C203F2191408160656584F835700020CB
:103C6000ACE700003F8010F02DE9F0410446866D7E
:103C700090F83400002501280DD0012084F834008C
:103C800094F835700020012F07D084F83400022505
:103C90002846BDE8F0810220FBE7022784F8357052
:103CA00060652046FEF7A6FF94F85C103F20884030
:103CB000B0602068016841F016010160206C20B1FD
:103CC0002068016841F0080101602068016841F046
:103CD00001010160DCE70000034630B40B4800211D
:103CE000094C02780CE000BF54F8210038B1C588B7
:103CF0009D4204D1856815B1AC4630BC6047491C73
:103D00009142F1D330BC7047085B0020D40E0020F4
:103D1000044910B50A68024202D00860FFF7DCFFD0
:103D200010BD0000143C01402DE9F84FDFF8BCA1A4
:103D30000022012503264FF00F090AF1040BAAF116
:103D4000040E00BF0B6805FA02F42340A34270D1B1
:103D50000F7907F00307012F01D0022F16D18768D2
:103D60004FEA420806FA08FC27EA0C07D1F80CC013
:103D70000CFA08FC4CEA070CC0F808C04768A743D7
:103D80000C79C4F3001494403C4344600C79E44340
:103D9000A4070AD0C4684FEA420C06FA0CF7BC43E9
:103DA0008F6807FA0CF72743C7600C7904F0030407
:103DB000022C12D1D40800EB840CDCF82040570709
:103DC000FF0E09FA07F824EA0804D1F8108008FA6F
:103DD00007F848EA0408CCF8208004684FEA420C4F
:103DE00006FA0CF7BC430F7907F0030707FA0CF744
:103DF000274307604C6814F4403F70D03C4C276860
:103E000047F480472760246822F0030704F48044C5
:103E10000094384C07EB040CDCF8084897074FEA8D
:103E2000177809FA08F7BC43334FB84202D100278C
:103E300024E054E0314FB84201D101271EE0304F59
:103E4000B84201D1022719E02E4FB84201D1032711
:103E500014E02D4FB84201D104270FE02B4FB84298
:103E600001D105270AE02A4FB84201D1062705E013
:103E7000284FB84201D1072700E0082707FA08F7C2
:103E80002743CCF80878DAF800405746D1F804C048
:103E90009C435FEACC2C00D51C433C60DBF800401F
:103EA0005F46D1F804C09C435FEA8C2C00D51C43CC
:103EB0003C60DEF800407746D1F804C09C435FEADE
:103EC0008C3C00D51C433C60084F083F3C68D1F84F
:103ED00004C09C435FEACC3C00D51C433C60521CB0
:103EE000102AFFF42FAFBDE8F88F0000083C014016
:103EF000443802400030014000000240000402400B
:103F000000080240000C0240001002400014024071
:103F100000180240001C02400069084000D0012047
:103F20007047426921EA02030A4043EA0241816183
:103F300070470AB1816170470904FBE70148806856
:103F40007047000008000020024881680278114490
:103F500081607047080000200B4810B5016841F4EB
:103F600000710160016841F480610160016841F401
:103F700080710160032000F09FF80F2000F006F828
:103F800000F050F8002010BD003C024030B505465E
:103F9000204887B00024016841F0010101600068F9
:103FA00006A900F00100009001A800F031F9049882
:103FB000B0B100F04DF9400017494FF08042B0FB1E
:103FC000F1F11648491E026040F2E732C0E90324CD
:103FD000C0E90114846100F0B7FB040003D015E0D0
:103FE00000F036F9E8E70D4800F03AFC04000DD186
:103FF0001C2000F033F8102D07D2002229461C2087
:1040000000F03AF80648056000E0012407B02046B9
:1040100030BD00004038024040420F0058110020DF
:104020000C0000200C4882B0016841F4804101601E
:10403000006800F4804000900748001F016841F0CC
:10404000805101600068002200F0805000900F2134
:10405000901E02B000F010B844380240002809DB7E
:1040600000F01F02012191404009800000F1E02092
:10407000C0F8001170470000F0B40E4B1B680C46EE
:10408000C3F30223C3F10705042D00D90425191D2C
:10409000072901D2002300E0DB1E012606FA05F104
:1040A000491E214099409E40761E16403143F0BC87
:1040B00005F0C4BD0CED00E0064900F007020868F9
:1040C0004FF6FF03184040EA0220034A10430860FD
:1040D000704700000CED00E00000FA052DE9F04704
:1040E0000E46050065D0DFF81481D8F80000F7B25D
:1040F00000F00700B04207D288F80070D8F800003E
:1041000000F00700B04254D128683D4C810712D519
:10411000400703D5206840F4E0502060287800076D
:1041200003D5206840F4604020602068A96820F032
:10413000F000084320602878C0072DD03049686817
:104140000839012812D0022813D0032811D0096899
:10415000890700292DDA216821F00301014321603C
:10416000FFF7ECFE814641F2883A0EE009688903C8
:10417000EFE709688901ECE7FFF7E0FEA0EB090132
:10418000514502D90320BDE8F0872068696800F036
:104190000C00B0EB810FEFD1D8F80010404601F0D1
:1041A0000701B14207D90770006800F00700B0426C
:1041B00001D00120E7E72878400705D52068E968A5
:1041C00020F4E050084320602878000706D52068D6
:1041D000296920F4604040EAC100206000F058F8EE
:1041E0002168084AC1F30311515CC84006490860C0
:1041F00006480068FFF7CAFE0020C4E7003C024002
:104200000838024044BF0008140000200C000020C1
:104210000F2202600C4A136803F003034360136823
:1042200003F0F0038360136803F4E053C360126883
:104230004FF4E05303EAD20202610448006800F040
:10424000070008607047000008380240003C024048
:104250000448054900680968044AC1F38221515C99
:10426000C8407047140000200838024054BF0008BE
:104270000448054900680968044AC1F34231515CA9
:10428000C8407047140000200838024054BF00089E
:10429000154810B5006810F00C02144813D01449EA
:1042A000042A0FD0082A0ED10F4C241F226823683D
:1042B00002F03F025B0207D52068C0F38810A0FB24
:1042C000010106E0084610BD2168C1F38811A1FB79
:1042D00000010023FCF72EF92168C1F30141491CBC
:1042E0004900B0FBF1F010BD083802400024F40092
:1042F00040787D012DE9F84F04006ED02078DFF87A
:104300004C93C007A9F104054AD009F104000168E3
:10431000C1F38101012908D00068C0F3810002289F
:104320000AD1D9F80000400206D52868800337D5A5
:1043300060680028E1D033E06068B0F5803F10D0BD
:10434000B0F5A02F286810D020F4803028602868AD
:1043500020F4802028606068A8B1FFF7EFFD0646D2
:104360000DE0286840F48030F4E740F480202860B5
:10437000F7E700BFFFF7E2FD801B642873D82868C9
:104380008003F7D50CE0FFF7D9FD064605E000BF36
:10439000FFF7D4FD801B6428F0D828688003F7D489
:1043A0002078DFF8AC8280074FF0000A3ED5A7489E
:1043B000001D016811F00C0F08D00068C0F38100E7
:1043C00002280BD1D9F80000400207D428688007E2
:1043D00016D5E068012800D112E033E1E068B8B1F9
:1043E0000120C8F80000FFF7A9FD064605E000BF60
:1043F000FFF7A4FD801B0228C0D828688007F7D5E6
:104400002868216920F0F80040EAC10028600DE02A
:10441000C8F800A0FFF792FD064604E0FFF78EFD06
:10442000801B02281FD828688007F7D4207800074F
:1044300022D5864F87486169703771B101210160CB
:10444000FFF77CFD064604E0FFF778FD801B02289D
:1044500009D838688007F7D50EE0C0F800A0FFF74C
:104460006DFD064605E082E0FFF768FD801B02282F
:104470007DD838688007F7D42078400768D5DFF802
:10448000CCB100270BF13C0BDBF80000C0000BD4D3
:10449000DBF8001041F08051CBF80010DBF8000091
:1044A000012700F0805000906B4E3068C00510D49A
:1044B000306840F480703060FFF740FD009005E008
:1044C000FFF73CFD0099401A022850D83068C0051B
:1044D000F6D55E4EA0686C3601280FD005283068EE
:1044E00010D020F001003060306820F0040030600F
:1044F000A068B8B1FFF722FD00900FE0306840F0EF
:104500000100F4E740F004003060F7E7FFF716FD24
:104510000099411A41F28830814266D8306880079C
:10452000F4D50EE0FFF70AFD009007E0FFF706FD67
:104530000099411A41F28830814256D8306880078C
:10454000F4D42FB1DBF8001021F08051CBF800102B
:10455000A069C8B33D49091D0968C1F38101022959
:104560004AD00228504607D0C8F8600000E03CE07E
:10457000FFF7E4FC04463BE04746C8F86000FFF75D
:10458000DDFC064605E000BFFFF7D8FC801B0228D3
:104590002BD828688001F7D4D4E907010843A16A21
:1045A0002E4A490802EB0141626A41EA821108433E
:1045B00094F82C1040EA0161C9F800100120386617
:1045C000FFF7BCFC044606E03EE000BFFFF7B6FC88
:1045D000001B022809D828688001F7D534E000BF05
:1045E000FFF7ACFC001B022802D90320BDE8F88FBE
:1045F00028688001F4D427E00128F7D0D9F800001A
:10460000E26900F4800191421CD1226A00F03F016E
:10461000914217D147F6C071626A0140B1EB821F27
:1046200010D1A26A4FF0FF3300F4403103EB520285
:10463000B1EB024F06D194F82C1000F07060B0EB93
:10464000016F01D00120D1E70020CFE704380240FC
:1046500000004742800E4742007000400000FFFF0C
:104660007047704710B590F83C20012A22D00122F3
:1046700080F83C20CA688C6822F4407222434C685F
:1046800022F4806222430C6822F4006222430C6907
:1046900022F4805222434C6922F400522243C96919
:1046A000002322F480420A4301684A6480F83C30C7
:1046B000002010BD022010BD70B590F83C20012AEA
:1046C00032D0012480F83C40022280F83D2003686B
:1046D0005A689D6822F070060A6832435A60134B8C
:1046E00002689A4214D0B2F1804F11D0104B9A4216
:1046F0000ED0104B9A420BD00F4B9A4208D00F4B62
:104700009A4205D00E4B9A4202D00E4B9A4204D1E7
:10471000496825F080031943916080F83D400021ED
:1047200080F83C10084670BD022070BD00000140BA
:104730000004004000080040000C0040000401405C
:10474000004001400018004010B5040003D094F868
:104750003D0010B107E0012010BD002084F83C00AE
:10476000204600F01FF8022084F83D00211D20683B
:1047700003F07AFF012084F8460084F83E0084F8B4
:104780003F0084F8400084F8410084F8420084F837
:10479000430084F8440084F8450084F83D0000207C
:1047A00010BD000008B500680C49884208D10C48CB
:1047B000016841F001010160006800F001000BE0B8
:1047C0000849884209D10648001F016841F00801E4
:1047D0000160006800F00800009008BD0000014082
:1047E00044380240000C004090F83D10012901D0EF
:1047F00001207047022180F83D100068114988426D
:1048000014D0B0F1804F11D00F4988420ED00F491B
:1048100088420BD00E49884208D00E49884205D004
:104820000D49884202D00D49884204D1816801F0C7
:104830000701062903D0016841F001010160002051
:1048400070470000000001400004004000080040E4
:10485000000C0040000401400040014000180040EE
:1048600090F83D10012901D001207047022180F805
:104870003D100168CA6842F00102CA60006811492F
:10488000884214D0B0F1804F11D00F4988420ED029
:104890000E4988420BD00E49884208D00D49884203
:1048A00005D00D49884202D00C49884204D1816864
:1048B00001F00701062903D0016841F00101016000
:1048C0000020704700000140000400400008004044
:1048D000000C00400004014000400140001800406E
:1048E00001680A6A41F211131A4207D10A6A9B1041
:1048F0001A4203D10A6822F001020A60012180F8FD
:104900003D10002070470168CA6822F00102CA60A9
:1049100001680A6A41F211131A4207D10A6A9B1010
:104920001A4203D10A6822F001020A60012180F8CC
:104930003D100020704770B5044690F83C000025FB
:10494000012817D0012684F83C60022084F83D003D
:104950002068826822F0770222F47F428260086831
:10496000502838D00DDC20284FD005DC90B310281B
:1049700011D14AE0022070BD302846D040280AD12B
:104980003BE060282FD070280DD0B0F5805F03D0B9
:10499000B0F5005F12D0012584F83D60002084F856
:1049A0003C00284670BDCB68D1E90121206803F0A6
:1049B000D0FE2068816841F0770109E0CB68D1E939
:1049C0000121206803F0C5FE2068816841F4804120
:1049D0008160E1E719E0CA684968206803F08EFF4A
:1049E0005021206806E0CA684968206803F097FFF4
:1049F0006021206803F0B7FECEE7CA6849682068E6
:104A000003F07CFF40212068F4E72268014610464D
:104A1000F0E72DE9F0410D46040003D094F83D0085
:104A200018B108E00120BDE8F081002084F83C00C6
:104A3000204600F041F8022084F83D00206881689B
:104A400044F2070291438160211D206803F00CFEAF
:104A5000226890689169166A2B68AF69034340F237
:104A60000330814341EA0721A868EF6908434FF604
:104A7000FC418843E96840EA0720014328692F6A1E
:104A8000000140EA0730084369686D6926F0AA060C
:104A900046EA0515294393602268906154F8460B55
:104AA0000162012004F81F09E0752076E076207786
:104AB000A0750020B7E7000030B587B00446142188
:104AC0006846FBF7ADFF214824681F4D00221F49AF
:104AD00010380223AC4216D10C6844F002040C607A
:104AE000096801F002010591016841F001010160CE
:104AF0000068694600F001000590C0200090CDE9F3
:104B00000132134819E0134DAC421AD10C6844F03D
:104B100004040C60096801F004010591016841F08A
:104B2000080101600068694600F0080005904FF434
:104B300040500090CDE901320748CDE90323FFF74B
:104B4000F3F807B030BD00000004004040380240D8
:104B50000000024000080040000C024070B590F8D0
:104B60003E60044690F83F5090F8423090F8432061
:104B7000022021B104290ED0012E1BD114E0012EF8
:104B800018D1012B16D184F83E0084F8420001228E
:104B90000021206820E0012D0CD1012A0AD184F8DF
:104BA0003F0084F8430014E0012D03D1012B01D113
:104BB000012A01D0012070BD84F83E0084F83F0036
:104BC00084F8420084F8430001220021206803F0A9
:104BD000B3FD01220421206803F0AEFD20680168C6
:104BE00041F001010160002070BD70B590F83E6099
:104BF000044690F83F5090F8423090F8432002204D
:104C000021B1042914D0012E25D11EE0012E22D17C
:104C1000012B20D184F83E0084F8420001220021BB
:104C2000206803F089FD2068C16841F002012FE08F
:104C3000012D10D1012A0ED184F83F0084F84300E1
:104C40000421206803F078FD1EE0012D03D1012B23
:104C500001D1012A01D0012070BD84F83E0084F802
:104C60003F0084F8420084F84300012200212068BC
:104C700003F062FD01220421206803F05DFD20683D
:104C8000C16841F00201C1602068C16841F00401BF
:104C9000C1602068016841F001010160002070BD21
:104CA00030B5044600680D0023D0042D04D0002246
:104CB000114603F041FD20680022042103F03CFD71
:104CC0002068016A41F21112114207D1016A921063
:104CD000114203D1016821F00101016001205DB1A1
:104CE000042D0DD004F83E0F60702071607100201B
:104CF00030BD00221146E1E704F83E0F2071F6E7CF
:104D000004F83F0FFAE730B5044600680D002ED0D6
:104D1000042D4FF0000233D0002103F00DFD0022DE
:104D20000421206803F008FD2068C16821F0020119
:104D3000C1602068C16821F00401C1602068016A77
:104D400041F21112114207D1016A9210114203D1AE
:104D5000016821F0010101600120ADB1042D17D0DF
:104D600004F83E0F607020716071002030BD002299
:104D7000114603F0E1FC2068C16821F00201DCE784
:104D8000042103F0D9FCD4E704F83E0F2071ECE7CE
:104D900004F83F0FFAE770472DE9F0410446006838
:104DA000C66805694FF00007A90713D5B10711D5EB
:104DB000F91E016101202077206880698007204664
:104DC00002D0FFF7E8FF04E000F0C0F8204600F052
:104DD00053F92777680716D5700714D521686FF047
:104DE00004000861022020772068806910F4407F69
:104DF000204602D0FFF7CFFF04E000F0A7F82046DE
:104E000000F03AF92777280715D5300713D5216820
:104E10006FF008000861042020772068C0698007CF
:104E2000204602D0FFF7B7FF04E000F08FF82046DD
:104E300000F022F92777E80616D5F00614D5216888
:104E40006FF010000861082020772068C06910F416
:104E5000407F204602D0FFF79EFF04E000F076F886
:104E6000204600F009F92777E80708D0F00706D0B8
:104E700021686FF001000861204600F0C3F92806A0
:104E800008D5300606D521686FF0800008612046FD
:104E9000FFF7E6FB680608D5700606D521686FF0B7
:104EA00040000861204600F0BAF9A8060AD5B0060D
:104EB00008D521686FF0200008612046BDE8F04168
:104EC000FFF7CFBBBDE8F08110B586B004461421D2
:104ED0006846FBF7A5FD2368174C002117480222FE
:104EE000A34212D1036843F010030360006800F08E
:104EF000100005904FF4D4400090CDE9012101202D
:104F0000CDE9031069460E4812E00E4CA34211D1C0
:104F1000036843F001030360006800F0010005909E
:104F200006200090CDE90121CDE90312694606482B
:104F3000FEF7FAFE06B010BD000001403038024016
:104F400000100240000C004000000240704770B5A5
:104F5000044690F83C0000260D4601280FD00120A1
:104F600084F83C006AB1042A1DD0082A2FD00C2AEC
:104F70003FD00126002084F83C00304670BD02205E
:104F800070BD206803F0F8FB2068816941F00801DA
:104F900081612068816921F0040181612068816953
:104FA0002A69114311E0206803F016FC206881692A
:104FB00041F4006181612068816921F4806181612F
:104FC000206881692A6941EA02218161D2E720686B
:104FD00003F038FC2068C16941F00801C161206814
:104FE000C16921F00401C1612068C1692A691143C6
:104FF00011E0206803F05AFC2068C16941F40061A7
:10500000C1612068C16921F48061C1612068C16902
:105010002A6941EA0221C161ACE710B5040003D05E
:1050200094F83D0010B107E0012010BD002084F885
:105030003C00204600F01EF8022084F83D00211DAF
:10504000206803F011FB012084F8460084F83E003C
:1050500084F83F0084F8400084F8410084F842005E
:1050600084F8430084F8440084F8450084F83D0047
:10507000002010BD70470000F0B405460F48002125
:105080000D4A0124037813E052F8210070B106683C
:10509000AE420BD186882F7FB60804FA06F6B742D7
:1050A00004D14169002905D0F0BC0847491CC9B2A8
:1050B0009942E9D3F0BC7047C85E0020D60E0020AC
:1050C00010B50446022249B104290ED0082913D094
:1050D00094F84100012816D0012010BD94F83E003C
:1050E0000128F9D184F83E200FE094F83F00012810
:1050F000F2D184F83F2008E094F840000128EBD179
:1051000084F8402001E084F841200122206803F067
:1051100013FB16492068164A884201D0904203D1F9
:10512000436C43F4004343642068884213D0B0F1D9
:10513000804F10D00F4988420DD00F4988420AD0C5
:105140000E49884207D0904205D00D49884202D0CE
:105150000C49884204D1816801F00701062903D077
:10516000016841F001010160002010BD0000014014
:10517000000401400004004000080040000C004012
:10518000004001400018004030B504460D4600685C
:10519000002203F0D1FA194B41F2111120688A1054
:1051A000984202D0164B984209D1036A0B4206D1AD
:1051B000036A134203D1436C23F400434364206821
:1051C000036A0B4206D1016A114203D1016821F042
:1051D0000101016001203DB1042D08D0082D09D046
:1051E00084F84100002030BD84F83E00FAE784F8DE
:1051F0003F00F7E784F84000F4E7000000000140BA
:105200000004014010B504460068B0F1804F01D1A0
:10521000FEF79AFE2046BDE8104003F059B97047EA
:10522000406B704738B5044690F84200202801D002
:10523000022038BD51B14AB10120206300206063D3
:10524000204603F019FD216B012901D0012038BD52
:1052500021680A684968009121680C3151E8002FE3
:1052600042F0100241E80023002BF5D138BD0000C8
:105270002DE9F041364A0025344F127862E000BF34
:1052800057F82530D3F80831834259D1C06BC06933
:10529000B0F5807F22D057F825200020A2F8040125
:1052A00057F82500A0F8061157F82500B0F800219E
:1052B000914201D9A0F8062157F82500D0F80C1129
:1052C00001B1884757F82500B0F80611FBF7A8FB95
:1052D00057F82500BDE8F04103F020BE57F82560DF
:1052E0000C46B6F80001A04200D80024D6F8080108
:1052F000FFF796FF30B9B6F80201A04202D1B6F826
:1053000000010AE0B6F80201A04201D8201A03E029
:10531000B6F80011081A204480B2B6F80211A6F8B7
:105320000411A6F80601A6F8024100280CD057F88F
:105330002500D0F80C11002906D0BDE8F04108473F
:105340006D1CEDB295429BD3BDE8F081FC6200205C
:10535000D80E002038B512490024104D09781AE003
:1053600055F82420D2F80821824212D155F82400A1
:10537000B0F80011FBF754FB55F8240003F0CEFD04
:1053800008A00090234609A209A10B4802F078FF6B
:1053900038BD641CE4B28C42E2D338BDFC6200200C
:1053A000D80E00201B5B306D00000000573A000053
:1053B0001B5B313B33336D0084C60008F8B50168D0
:1053C00004460868CA684B6910F00F0F4FF00005DB
:1053D00059D003F0010602F49077374365D0C10736
:1053E00005D0D10503D5616C41F00101616441072D
:1053F00005D5D90703D0616C41F0020161648107D2
:1054000005D5D90703D0616C41F00401616401073F
:1054100007D502F02001314303D0616C41F008014F
:105420006164616C00293AD0800604D5900602D5EB
:10543000204603F039FB20684069616CC0F380109E
:10544000090700D460B3204603F0F9FA20684069E8
:10545000400621D52068143050E8001F21F040019B
:1054600040E80012002AF5D1E06BA8B1724901654D
:10547000E06BFEF7ADFA002811D0E06B016D01B0D2
:10548000BDE8F040084783060FD593060DD52046AA
:10549000BDE8F84003F008BB2046FFF75BFFF8BD0E
:1054A0002046FFF757FF6564F8BD266B2023012EC9
:1054B0007ED1C6067CD5D6067AD5086848680090A5
:1054C00048694FF0020640064DD5E26B106840680F
:1054D0004FF480770004000C3AD0A18D814237D977
:1054E000E085D069B8422DD020680C3050E8001F0C
:1054F00021F4807140E80012002AF5D120681430B0
:1055000050E8001F21F0010140E80012002AF5D107
:105510002068143050E8001F21F0400140E80012DC
:10552000002AF5D184F84230256320680C3050E819
:10553000001F21F0100140E80012002AF5D1E06BB5
:10554000FEF7FDF96663A08DE18D401A81B206E099
:10555000A18D8142A8D1D069B842A5D16663204609
:10556000FFF786FEF8BDA08DE18D401A81B2E08D77
:105570000028F7D00029F5D020680C3050E8002F23
:1055800022F4907240E80027002FF5D120681430F3
:1055900050E8002F22F0010240E80027002FF5D14B
:1055A00084F84230256320680C3050E8002F00E07A
:1055B00006E022F0100240E80023002BF3D1CDE7F3
:1055C00005062BD5150629D594F841002128C9D107
:1055D000A068B0F5805F01D12069B0B1206A411C9C
:1055E0002162216800784860E08C401E0004000CB5
:1055F000E084B7D12068C16821F08001C1602068D3
:10560000C16841F04001C160F8BD206A0088C0F364
:1056100008004860206A801C2062E5E74006F3D558
:105620005006F1D5CA68204622F04002CA6084F8CC
:10563000413000F0E1F8F8BD4389000870B504007E
:1056400004D094F84100002510B106E0012070BD9F
:1056500084F84050204600F023F8242084F84100CC
:105660002068C16821F40051C160204603F07EFA31
:105670002068016921F4904101612068416921F0AD
:105680002A0141612068C16841F40051C16065642C
:10569000202084F8410084F842006563002070BD3A
:1056A00070B586B0064614216846FBF7B9F924495F
:1056B0003068884241D123480025016841F010013B
:1056C0000160006800F0100005901E481438016861
:1056D00041F0010101600068694600F00100059099
:1056E0004FF4C06000900220CDE901050320039033
:1056F000072004901448FEF717FB154C1348206050
:105700004FF00060C4E901054014C4E90350801063
:105710006561C4E90650256220466562FEF73AFAE3
:1057200008B1FDF70FFCF463002205212520A663D4
:10573000FEF7A2FC2520FEF791FC06B070BD00002C
:105740000010014044380240000002404064024022
:10575000F8100020704770472DE9F843044690F890
:105760004100984616460D46202802D00220BDE88A
:10577000F88385B17EB100206064212084F8410067
:10578000FEF7DCFBA6848146E684A0682027B0F5FE
:10579000805F02D003E00120E9E7206910B12E46C6
:1057A00000250EE000260CE08021204603F0B4FA2C
:1057B000A8B9C6B116F8010B21684860E08C401EFC
:1057C000E084E08C4B464FF00002CDF800800028CA
:1057D000EAD14FF04001204603F09EFA40B184F830
:1057E00041700320C3E735F8020BC0F30800E3E77C
:1057F00084F841700020BAE77047FEE72DE9F047D2
:10580000041E4FF000083AD04179012937D104F144
:105810000800814600F07EF888B33D4E00203B4FE3
:10582000327828E057F8201019B314B34B79657912
:10583000AB421ED1257991F804C06D062D0EAC4502
:1058400017D19BB18D68A3689D4212D18D89A38920
:105850009D420ED10D6923699D420AD18B8AA18A8E
:105860008B4206D157F82000BDE8F0870B6821680D
:10587000F6E7401CC0B29042D4D3082A01D30020DE
:10588000F2E7224902EB420000EBC200203101EBBB
:1058900080052C212846FBF7C3F8207940002871A9
:1058A000E0696862A079A8716079687121682960EF
:1058B000216AA962012821D105F1080085F8068036
:1058C000142249460446FBF74FF8A86908B902209C
:1058D000A861204600F01EF880B1204600F0B2F822
:1058E00004F1080000F0AEF8A18801222068FEF75C
:1058F00020FBA1890122A068FEF71BFB307847F846
:105900002050401C30702846AEE70000885B002025
:10591000D50E0020002808D0016839B1816829B16E
:10592000818819B1808908B1012070470020704733
:1059300008B5022110B1806900B1014688010090CC
:1059400001E000BF0846411E0091FAD208BD0000E8
:10595000324A08B53249904207D1086840F0010048
:105960000860086800F0010009E02E4A904208D162
:10597000086840F002000860086800F0020000902B
:1059800008BD294A904207D1086840F00400086029
:10599000086800F00400F2E7244A904207D1086842
:1059A00040F008000860086800F00800E7E7204AB7
:1059B000904207D1086840F010000860086800F0C5
:1059C0001000DCE71B4A904207D1086840F0200035
:1059D0000860086800F02000D1E7174A904207D11C
:1059E000086840F040000860086800F04000C6E722
:1059F000124A904207D1086840F0800008600868A9
:105A000000F08000BBE70E4A9042B9D1086840F42C
:105A100080700860086800F48070B0E70000024001
:105A2000303802400004024000080240000C0240EE
:105A3000001002400014024000180240001C024006
:105A40000020024010B586B0040013D02068002862
:105A500010D0A18800290DD0FFF77AFFA088009010
:105A600011200190012002900220039069462068D5
:105A7000FEF75AF906B010BD70B50446012100F0DA
:105A80007DF82046FFF754FF0121204600F070F812
:105A90002046FFF74DFFA18A2069FEF73DFA012855
:105AA00006D000250021204600F062F8284670BD8F
:105AB0000125F7E710B50446012100F05FF8012148
:105AC000204600F055F82046FFF732FF002120461F
:105AD00000F054F82046FFF72BFF2046BDE81040A9
